{
  "_format": "hh-sol-artifact-1",
  "contractName": "NFTDepositor",
  "sourceName": "contracts/NFTDepositor.sol",
  "abi": [
    {
      "inputs": [
        {
          "internalType": "address",
          "name": "_router",
          "type": "address"
        },
        {
          "internalType": "address",
          "name": "_link",
          "type": "address"
        },
        {
          "internalType": "address",
          "name": "_usdc",
          "type": "address"
        }
      ],
      "stateMutability": "nonpayable",
      "type": "constructor"
    },
    {
      "inputs": [
        {
          "internalType": "uint256",
          "name": "currentBalance",
          "type": "uint256"
        },
        {
          "internalType": "uint256",
          "name": "calculatedFees",
          "type": "uint256"
        }
      ],
      "name": "NotEnoughBalance",
      "type": "error"
    },
    {
      "anonymous": false,
      "inputs": [
        {
          "indexed": true,
          "internalType": "address",
          "name": "sender",
          "type": "address"
        },
        {
          "indexed": false,
          "internalType": "uint256",
          "name": "amount",
          "type": "uint256"
        }
      ],
      "name": "LinkReceived",
      "type": "event"
    },
    {
      "anonymous": false,
      "inputs": [
        {
          "indexed": true,
          "internalType": "bytes32",
          "name": "messageId",
          "type": "bytes32"
        },
        {
          "indexed": true,
          "internalType": "uint64",
          "name": "scrollSepoliaDest",
          "type": "uint64"
        },
        {
          "indexed": false,
          "internalType": "address",
          "name": "receiver",
          "type": "address"
        },
        {
          "indexed": false,
          "internalType": "bytes32",
          "name": "text",
          "type": "bytes32"
        },
        {
          "indexed": false,
          "internalType": "address",
          "name": "feeToken",
          "type": "address"
        },
        {
          "indexed": false,
          "internalType": "uint256",
          "name": "fees",
          "type": "uint256"
        }
      ],
      "name": "MessageSent",
      "type": "event"
    },
    {
      "anonymous": false,
      "inputs": [
        {
          "indexed": true,
          "internalType": "address",
          "name": "nftAddress",
          "type": "address"
        },
        {
          "indexed": true,
          "internalType": "address",
          "name": "owner",
          "type": "address"
        },
        {
          "indexed": false,
          "internalType": "uint256",
          "name": "tokenId",
          "type": "uint256"
        },
        {
          "indexed": false,
          "internalType": "uint256",
          "name": "startedTime",
          "type": "uint256"
        },
        {
          "indexed": false,
          "internalType": "uint256",
          "name": "expiredTime",
          "type": "uint256"
        }
      ],
      "name": "NFTDeposit",
      "type": "event"
    },
    {
      "anonymous": false,
      "inputs": [
        {
          "indexed": true,
          "internalType": "address",
          "name": "nftAddress",
          "type": "address"
        },
        {
          "indexed": true,
          "internalType": "address",
          "name": "owner",
          "type": "address"
        },
        {
          "indexed": false,
          "internalType": "uint256",
          "name": "tokenId",
          "type": "uint256"
        },
        {
          "indexed": false,
          "internalType": "uint256",
          "name": "withdrawnTime",
          "type": "uint256"
        }
      ],
      "name": "NFTWithdraw",
      "type": "event"
    },
    {
      "anonymous": false,
      "inputs": [
        {
          "indexed": true,
          "internalType": "address",
          "name": "from",
          "type": "address"
        },
        {
          "indexed": true,
          "internalType": "address",
          "name": "to",
          "type": "address"
        }
      ],
      "name": "OwnershipTransferRequested",
      "type": "event"
    },
    {
      "anonymous": false,
      "inputs": [
        {
          "indexed": true,
          "internalType": "address",
          "name": "from",
          "type": "address"
        },
        {
          "indexed": true,
          "internalType": "address",
          "name": "to",
          "type": "address"
        }
      ],
      "name": "OwnershipTransferred",
      "type": "event"
    },
    {
      "inputs": [],
      "name": "LOCK_PERIOD",
      "outputs": [
        {
          "internalType": "uint256",
          "name": "",
          "type": "uint256"
        }
      ],
      "stateMutability": "view",
      "type": "function"
    },
    {
      "inputs": [],
      "name": "REWARD_AMOUNT",
      "outputs": [
        {
          "internalType": "uint256",
          "name": "",
          "type": "uint256"
        }
      ],
      "stateMutability": "view",
      "type": "function"
    },
    {
      "inputs": [],
      "name": "acceptOwnership",
      "outputs": [],
      "stateMutability": "nonpayable",
      "type": "function"
    },
    {
      "inputs": [
        {
          "internalType": "address",
          "name": "nftAddress",
          "type": "address"
        },
        {
          "internalType": "uint256",
          "name": "tokenId",
          "type": "uint256"
        },
        {
          "internalType": "address",
          "name": "receiver",
          "type": "address"
        },
        {
          "internalType": "bytes32",
          "name": "commitment",
          "type": "bytes32"
        }
      ],
      "name": "depositNft",
      "outputs": [
        {
          "internalType": "bytes32",
          "name": "messageId",
          "type": "bytes32"
        }
      ],
      "stateMutability": "nonpayable",
      "type": "function"
    },
    {
      "inputs": [
        {
          "internalType": "address",
          "name": "",
          "type": "address"
        },
        {
          "internalType": "uint256",
          "name": "",
          "type": "uint256"
        }
      ],
      "name": "depositsInfo",
      "outputs": [
        {
          "internalType": "address",
          "name": "owner",
          "type": "address"
        },
        {
          "internalType": "uint256",
          "name": "unlockTime",
          "type": "uint256"
        },
        {
          "internalType": "bool",
          "name": "withdrawn",
          "type": "bool"
        }
      ],
      "stateMutability": "view",
      "type": "function"
    },
    {
      "inputs": [],
      "name": "destinationScrollSepolia",
      "outputs": [
        {
          "internalType": "uint64",
          "name": "",
          "type": "uint64"
        }
      ],
      "stateMutability": "view",
      "type": "function"
    },
    {
      "inputs": [
        {
          "internalType": "address",
          "name": "nftAddress",
          "type": "address"
        },
        {
          "internalType": "uint256",
          "name": "tokenId",
          "type": "uint256"
        }
      ],
      "name": "getUnlockTime",
      "outputs": [
        {
          "internalType": "uint256",
          "name": "",
          "type": "uint256"
        }
      ],
      "stateMutability": "view",
      "type": "function"
    },
    {
      "inputs": [
        {
          "internalType": "address",
          "name": "nftAddress",
          "type": "address"
        },
        {
          "internalType": "uint256",
          "name": "tokenId",
          "type": "uint256"
        }
      ],
      "name": "isWithdrawable",
      "outputs": [
        {
          "internalType": "bool",
          "name": "",
          "type": "bool"
        }
      ],
      "stateMutability": "view",
      "type": "function"
    },
    {
      "inputs": [],
      "name": "ntfPools",
      "outputs": [
        {
          "internalType": "uint256",
          "name": "",
          "type": "uint256"
        }
      ],
      "stateMutability": "view",
      "type": "function"
    },
    {
      "inputs": [
        {
          "internalType": "address",
          "name": "sender",
          "type": "address"
        },
        {
          "internalType": "uint256",
          "name": "amount",
          "type": "uint256"
        },
        {
          "internalType": "bytes",
          "name": "",
          "type": "bytes"
        }
      ],
      "name": "onTokenTransfer",
      "outputs": [],
      "stateMutability": "nonpayable",
      "type": "function"
    },
    {
      "inputs": [],
      "name": "owner",
      "outputs": [
        {
          "internalType": "address",
          "name": "",
          "type": "address"
        }
      ],
      "stateMutability": "view",
      "type": "function"
    },
    {
      "inputs": [],
      "name": "s_linkToken",
      "outputs": [
        {
          "internalType": "contract LinkTokenInterface",
          "name": "",
          "type": "address"
        }
      ],
      "stateMutability": "view",
      "type": "function"
    },
    {
      "inputs": [],
      "name": "s_router",
      "outputs": [
        {
          "internalType": "contract IRouterClient",
          "name": "",
          "type": "address"
        }
      ],
      "stateMutability": "view",
      "type": "function"
    },
    {
      "inputs": [
        {
          "internalType": "address",
          "name": "to",
          "type": "address"
        }
      ],
      "name": "transferOwnership",
      "outputs": [],
      "stateMutability": "nonpayable",
      "type": "function"
    },
    {
      "inputs": [],
      "name": "usdc",
      "outputs": [
        {
          "internalType": "contract IERC20",
          "name": "",
          "type": "address"
        }
      ],
      "stateMutability": "view",
      "type": "function"
    },
    {
      "inputs": [
        {
          "internalType": "address",
          "name": "",
          "type": "address"
        }
      ],
      "name": "userLinkTokenBalance",
      "outputs": [
        {
          "internalType": "uint256",
          "name": "",
          "type": "uint256"
        }
      ],
      "stateMutability": "view",
      "type": "function"
    },
    {
      "inputs": [
        {
          "internalType": "address",
          "name": "nftAddress",
          "type": "address"
        },
        {
          "internalType": "uint256",
          "name": "tokenId",
          "type": "uint256"
        }
      ],
      "name": "withdrawNft",
      "outputs": [],
      "stateMutability": "nonpayable",
      "type": "function"
    }
  ],
  "bytecode": "0x60a06040523480156200001157600080fd5b5060405162001665380380620016658339810160408190526200003491620001c8565b33806000816200008b5760405162461bcd60e51b815260206004820152601860248201527f43616e6e6f7420736574206f776e657220746f207a65726f000000000000000060448201526064015b60405180910390fd5b600080546001600160a01b0319166001600160a01b0384811691909117909155811615620000be57620000be8162000100565b5050600160025550600380546001600160a01b03199081166001600160a01b039586161790915560048054909116928416929092179091551660805262000212565b336001600160a01b038216036200015a5760405162461bcd60e51b815260206004820152601760248201527f43616e6e6f74207472616e7366657220746f2073656c66000000000000000000604482015260640162000082565b600180546001600160a01b0319166001600160a01b0383811691821790925560008054604051929316917fed8889f560326eb138920d842192f0eb3dd22b4f139c87a2c57538e05bae12789190a350565b80516001600160a01b0381168114620001c357600080fd5b919050565b600080600060608486031215620001de57600080fd5b620001e984620001ab565b9250620001f960208501620001ab565b91506200020960408501620001ab565b90509250925092565b60805161143062000235600039600081816101320152610eae01526114306000f3fe608060405234801561001057600080fd5b506004361061010b5760003560e01c80638da5cb5b116100a2578063d45d30e711610071578063d45d30e7146102a9578063d8fc6519146102b2578063e16e632c146102c5578063ec531d92146102d8578063f2fde38b1461031157600080fd5b80638da5cb5b14610252578063a4c0ed3614610263578063a8b0d06114610276578063cf8494421461029957600080fd5b806372ebc938116100de57806372ebc938146102025780637725135b1461022257806379ba50971461023557806386e64cf61461023f57600080fd5b80631820cabb146101105780633e413bee1461012d57806344639e9c1461016c578063640977ff14610194575b600080fd5b61011a62093a8081565b6040519081526020015b60405180910390f35b6101547f000000000000000000000000000000000000000000000000000000000000000081565b6040516001600160a01b039091168152602001610124565b61017b671fa3b5d5b7cd348b81565b60405167ffffffffffffffff9091168152602001610124565b6101db6101a2366004611122565b60066020908152600092835260408084209091529082529020805460018201546002909201546001600160a01b03909116919060ff1683565b604080516001600160a01b0390941684526020840192909252151590820152606001610124565b61011a61021036600461114e565b60076020526000908152604090205481565b600454610154906001600160a01b031681565b61023d610324565b005b61011a61024d366004611172565b6103d3565b6000546001600160a01b0316610154565b61023d6102713660046111ba565b610c07565b610289610284366004611122565b610cbb565b6040519015158152602001610124565b61011a68056bc75e2d6310000081565b61011a60055481565b61023d6102c0366004611122565b610d3d565b600354610154906001600160a01b031681565b61011a6102e6366004611122565b6001600160a01b03919091166000908152600660209081526040808320938352929052206001015490565b61023d61031f36600461114e565b610ffb565b6001546001600160a01b0316331461037c5760405162461bcd60e51b815260206004820152601660248201527526bab9ba10313290383937b837b9b2b21037bbb732b960511b60448201526064015b60405180910390fd5b60008054336001600160a01b0319808316821784556001805490911690556040516001600160a01b0390921692909183917f8be0079c531659141344cd1fd0a4f28419497f9722a3daafe3b4186f6b6457e091a350565b600060028054036104265760405162461bcd60e51b815260206004820152601f60248201527f5265656e7472616e637947756172643a207265656e7472616e742063616c6c006044820152606401610373565b600280556040516331a9108f60e11b8152600481018590523390869082906001600160a01b03831690636352211e90602401602060405180830381865afa158015610475573d6000803e3d6000fd5b505050506040513d601f19601f820116820180604052508101906104999190611243565b6001600160a01b0316146104e35760405162461bcd60e51b81526020600482015260116024820152702737ba103a34329027232a1037bbb732b960791b6044820152606401610373565b60405163020604bf60e21b81526004810187905230906001600160a01b0383169063081812fc90602401602060405180830381865afa15801561052a573d6000803e3d6000fd5b505050506040513d601f19601f8201168201806040525081019061054e9190611243565b6001600160a01b031614806105ce575060405163e985e9c560e01b81526001600160a01b03838116600483015230602483015282169063e985e9c590604401602060405180830381865afa1580156105aa573d6000803e3d6000fd5b505050506040513d601f19601f820116820180604052508101906105ce9190611260565b6106125760405162461bcd60e51b815260206004820152601560248201527410dbdb9d1c9858dd081b9bdd08185c1c1c9bdd9959605a1b6044820152606401610373565b6040516323b872dd60e01b8152336004820152306024820152604481018790526001600160a01b038216906323b872dd90606401600060405180830381600087803b15801561066057600080fd5b505af1158015610674573d6000803e3d6000fd5b50505050600062093a80426106899190611298565b604080516060810182526001600160a01b038681168252602080830185815260008486018181528f85168252600684528682208f8352909352948520935184546001600160a01b0319169316929092178355905160018084019190915590516002909201805460ff191692151592909217909155600580549394509092909190610714908490611298565b90915550506040805160a081019091526001600160a01b03871660c08201526000908060e0810160405160208183030381529060405281526020018760405160200161076291815260200190565b60408051601f19818403018152919052815260200160006040519080825280602002602001820160405280156107be57816020015b60408051808201909152600080825260208201528152602001906001900390816107975790505b5081526004546001600160a01b03166020808301919091526040805180820182526207a12080825260019184019182528251602481019190915290511515604480830191909152825180830390910181526064909101825291820180516001600160e01b0316630181dcf160e41b179052909101526003546040516320487ded60e01b81529192506000916001600160a01b03909116906320487ded9061087390671fa3b5d5b7cd348b9086906004016112f1565b602060405180830381865afa158015610890573d6000803e3d6000fd5b505050506040513d601f19601f820116820180604052508101906108b491906113ce565b6001600160a01b038616600090815260076020526040902054909150811115610915576001600160a01b03851660009081526007602052604090819020549051634787a10360e11b8152600481019190915260248101829052604401610373565b600480546040516370a0823160e01b815230928101929092526001600160a01b0316906370a0823190602401602060405180830381865afa15801561095e573d6000803e3d6000fd5b505050506040513d601f19601f8201168201806040525081019061098291906113ce565b811115610a1a57600480546040516370a0823160e01b815230928101929092526001600160a01b0316906370a0823190602401602060405180830381865afa1580156109d2573d6000803e3d6000fd5b505050506040513d601f19601f820116820180604052508101906109f691906113ce565b604051634787a10360e11b8152600481019190915260248101829052604401610373565b6004805460035460405163095ea7b360e01b81526001600160a01b039182169381019390935260248301849052169063095ea7b3906044016020604051808303816000875af1158015610a71573d6000803e3d6000fd5b505050506040513d601f19601f82011682018060405250810190610a959190611260565b506001600160a01b03851660009081526007602052604081208054839290610abe9084906113e7565b90915550506003546040516396f4e9f960e01b81526001600160a01b03909116906396f4e9f990610afd90671fa3b5d5b7cd348b9086906004016112f1565b6020604051808303816000875af1158015610b1c573d6000803e3d6000fd5b505050506040513d601f19601f82011682018060405250810190610b4091906113ce565b600454604080516001600160a01b03808d168252602082018c90529092169082015260608101839052909650671fa3b5d5b7cd348b9087907f956cff312b4d1cacc31fcee4888e38a3ffa98bc23cd18db44466509472826fe39060800160405180910390a3604080518a81524260208201529081018490526001600160a01b0380871691908c16907f418d5c0fc1b9322bf8bd4a1d19d10df5ae3ebee2494c65c6af6eb170ccf1c4f89060600160405180910390a350505050506001600255949350505050565b6004546001600160a01b03163314610c535760405162461bcd60e51b815260206004820152600f60248201526e27b7363c902624a725903a37b5b2b760891b6044820152606401610373565b6001600160a01b03841660009081526007602052604081208054859290610c7b908490611298565b909155505060405183815233907f5795ff2ec97ccf4c9fde1f8e56ed5220b5c63f2874f19f5d20c220a3215431fa9060200160405180910390a250505050565b6001600160a01b038083166000908152600660209081526040808320858452825280832081516060810183528154909516855260018101549285019290925260029091015460ff1615801591840182905291929190610d23575080516001600160a01b031633145b8015610d33575080602001514211155b9150505b92915050565b6002805403610d8e5760405162461bcd60e51b815260206004820152601f60248201527f5265656e7472616e637947756172643a207265656e7472616e742063616c6c006044820152606401610373565b600280556001600160a01b038083166000908152600660209081526040808320858452909152902080549091163314610df95760405162461bcd60e51b815260206004820152600d60248201526c2737ba103232b837b9b4ba37b960991b6044820152606401610373565b600281015460ff1615610e425760405162461bcd60e51b815260206004820152601160248201527020b63932b0b23c903bb4ba34323930bbb760791b6044820152606401610373565b8060010154421115610e845760405162461bcd60e51b815260206004820152600b60248201526a13919508195e1c1a5c995960aa1b6044820152606401610373565b6040516323b872dd60e01b815233600482015230602482015268056bc75e2d6310000060448201527f00000000000000000000000000000000000000000000000000000000000000006001600160a01b0316906323b872dd906064016020604051808303816000875af1158015610eff573d6000803e3d6000fd5b505050506040513d601f19601f82011682018060405250810190610f239190611260565b610f625760405162461bcd60e51b815260206004820152601060248201526f14185e589858dac81c995c5d5a5c995960821b6044820152606401610373565b60028101805460ff1916600190811790915560058054600090610f869084906113e7565b90915550506040516323b872dd60e01b8152306004820152336024820152604481018390526001600160a01b038416906323b872dd90606401600060405180830381600087803b158015610fd957600080fd5b505af1158015610fed573d6000803e3d6000fd5b505060016002555050505050565b61100361100f565b61100c81611064565b50565b6000546001600160a01b031633146110625760405162461bcd60e51b815260206004820152601660248201527527b7363c9031b0b63630b1363290313c9037bbb732b960511b6044820152606401610373565b565b336001600160a01b038216036110bc5760405162461bcd60e51b815260206004820152601760248201527f43616e6e6f74207472616e7366657220746f2073656c660000000000000000006044820152606401610373565b600180546001600160a01b0319166001600160a01b0383811691821790925560008054604051929316917fed8889f560326eb138920d842192f0eb3dd22b4f139c87a2c57538e05bae12789190a350565b6001600160a01b038116811461100c57600080fd5b6000806040838503121561113557600080fd5b82356111408161110d565b946020939093013593505050565b60006020828403121561116057600080fd5b813561116b8161110d565b9392505050565b6000806000806080858703121561118857600080fd5b84356111938161110d565b93506020850135925060408501356111aa8161110d565b9396929550929360600135925050565b600080600080606085870312156111d057600080fd5b84356111db8161110d565b935060208501359250604085013567ffffffffffffffff808211156111ff57600080fd5b818701915087601f83011261121357600080fd5b81358181111561122257600080fd5b88602082850101111561123457600080fd5b95989497505060200194505050565b60006020828403121561125557600080fd5b815161116b8161110d565b60006020828403121561127257600080fd5b8151801515811461116b57600080fd5b634e487b7160e01b600052601160045260246000fd5b80820180821115610d3757610d37611282565b6000815180845260005b818110156112d1576020818501810151868301820152016112b5565b506000602082860101526020601f19601f83011685010191505092915050565b6000604067ffffffffffffffff851683526020604081850152845160a0604086015261132060e08601826112ab565b905081860151603f198087840301606088015261133d83836112ab565b6040890151888203830160808a01528051808352908601945060009350908501905b8084101561139157845180516001600160a01b031683528601518683015293850193600193909301929086019061135f565b5060608901516001600160a01b031660a08901526080890151888203830160c08a015295506113c081876112ab565b9a9950505050505050505050565b6000602082840312156113e057600080fd5b5051919050565b81810381811115610d3757610d3761128256fea26469706673582212207069be1b2e6036625b5d34c183e1c4724e0bef2f77da3b6e7e7bbee64c674d9e64736f6c63430008180033",
  "linkReferences": {},
  "deployedLinkReferences": {}
}