{
  "_format": "hh-sol-artifact-1",
  "contractName": "LoanWithdrawer",
  "sourceName": "contracts/LoanWithdrawer.sol",
  "abi": [
    {
      "inputs": [
        {
          "internalType": "contract IVerifier",
          "name": "_verifier",
          "type": "address"
        },
        {
          "internalType": "address",
          "name": "_usdc",
          "type": "address"
        },
        {
          "internalType": "address",
          "name": "router",
          "type": "address"
        },
        {
          "internalType": "contract IHasher",
          "name": "hasher",
          "type": "address"
        },
        {
          "internalType": "uint32",
          "name": "merkleTreeHeight",
          "type": "uint32"
        }
      ],
      "stateMutability": "nonpayable",
      "type": "constructor"
    },
    {
      "inputs": [
        {
          "internalType": "address",
          "name": "router",
          "type": "address"
        }
      ],
      "name": "InvalidRouter",
      "type": "error"
    },
    {
      "anonymous": false,
      "inputs": [
        {
          "indexed": true,
          "internalType": "bytes32",
          "name": "commitment",
          "type": "bytes32"
        },
        {
          "indexed": true,
          "internalType": "uint256",
          "name": "leafIndex",
          "type": "uint256"
        }
      ],
      "name": "LeafCommitment",
      "type": "event"
    },
    {
      "anonymous": false,
      "inputs": [
        {
          "indexed": true,
          "internalType": "bytes32",
          "name": "messageId",
          "type": "bytes32"
        },
        {
          "indexed": true,
          "internalType": "uint64",
          "name": "sourceChainSelector",
          "type": "uint64"
        },
        {
          "indexed": false,
          "internalType": "address",
          "name": "sender",
          "type": "address"
        },
        {
          "indexed": false,
          "internalType": "bytes32",
          "name": "text",
          "type": "bytes32"
        }
      ],
      "name": "MessageReceived",
      "type": "event"
    },
    {
      "inputs": [],
      "name": "FIELD_SIZE",
      "outputs": [
        {
          "internalType": "uint256",
          "name": "",
          "type": "uint256"
        }
      ],
      "stateMutability": "view",
      "type": "function"
    },
    {
      "inputs": [],
      "name": "ROOT_HISTORY_SIZE",
      "outputs": [
        {
          "internalType": "uint32",
          "name": "",
          "type": "uint32"
        }
      ],
      "stateMutability": "view",
      "type": "function"
    },
    {
      "inputs": [],
      "name": "ZERO_VALUE",
      "outputs": [
        {
          "internalType": "uint256",
          "name": "",
          "type": "uint256"
        }
      ],
      "stateMutability": "view",
      "type": "function"
    },
    {
      "inputs": [
        {
          "components": [
            {
              "internalType": "bytes32",
              "name": "messageId",
              "type": "bytes32"
            },
            {
              "internalType": "uint64",
              "name": "sourceChainSelector",
              "type": "uint64"
            },
            {
              "internalType": "bytes",
              "name": "sender",
              "type": "bytes"
            },
            {
              "internalType": "bytes",
              "name": "data",
              "type": "bytes"
            },
            {
              "components": [
                {
                  "internalType": "address",
                  "name": "token",
                  "type": "address"
                },
                {
                  "internalType": "uint256",
                  "name": "amount",
                  "type": "uint256"
                }
              ],
              "internalType": "struct Client.EVMTokenAmount[]",
              "name": "destTokenAmounts",
              "type": "tuple[]"
            }
          ],
          "internalType": "struct Client.Any2EVMMessage",
          "name": "message",
          "type": "tuple"
        }
      ],
      "name": "ccipReceive",
      "outputs": [],
      "stateMutability": "nonpayable",
      "type": "function"
    },
    {
      "inputs": [],
      "name": "currentRootIndex",
      "outputs": [
        {
          "internalType": "uint32",
          "name": "",
          "type": "uint32"
        }
      ],
      "stateMutability": "view",
      "type": "function"
    },
    {
      "inputs": [
        {
          "internalType": "uint256",
          "name": "",
          "type": "uint256"
        }
      ],
      "name": "filledSubtrees",
      "outputs": [
        {
          "internalType": "bytes32",
          "name": "",
          "type": "bytes32"
        }
      ],
      "stateMutability": "view",
      "type": "function"
    },
    {
      "inputs": [],
      "name": "getLastReceivedMessageDetails",
      "outputs": [
        {
          "internalType": "bytes32",
          "name": "messageId",
          "type": "bytes32"
        },
        {
          "internalType": "bytes32",
          "name": "text",
          "type": "bytes32"
        }
      ],
      "stateMutability": "view",
      "type": "function"
    },
    {
      "inputs": [],
      "name": "getLastRoot",
      "outputs": [
        {
          "internalType": "bytes32",
          "name": "",
          "type": "bytes32"
        }
      ],
      "stateMutability": "view",
      "type": "function"
    },
    {
      "inputs": [],
      "name": "getRouter",
      "outputs": [
        {
          "internalType": "address",
          "name": "",
          "type": "address"
        }
      ],
      "stateMutability": "view",
      "type": "function"
    },
    {
      "inputs": [
        {
          "internalType": "contract IHasher",
          "name": "_hasher",
          "type": "address"
        },
        {
          "internalType": "bytes32",
          "name": "_left",
          "type": "bytes32"
        },
        {
          "internalType": "bytes32",
          "name": "_right",
          "type": "bytes32"
        }
      ],
      "name": "hashLeftRight",
      "outputs": [
        {
          "internalType": "bytes32",
          "name": "",
          "type": "bytes32"
        }
      ],
      "stateMutability": "pure",
      "type": "function"
    },
    {
      "inputs": [],
      "name": "hasher",
      "outputs": [
        {
          "internalType": "contract IHasher",
          "name": "",
          "type": "address"
        }
      ],
      "stateMutability": "view",
      "type": "function"
    },
    {
      "inputs": [
        {
          "internalType": "bytes32",
          "name": "_root",
          "type": "bytes32"
        }
      ],
      "name": "isKnownRoot",
      "outputs": [
        {
          "internalType": "bool",
          "name": "",
          "type": "bool"
        }
      ],
      "stateMutability": "view",
      "type": "function"
    },
    {
      "inputs": [],
      "name": "levels",
      "outputs": [
        {
          "internalType": "uint32",
          "name": "",
          "type": "uint32"
        }
      ],
      "stateMutability": "view",
      "type": "function"
    },
    {
      "inputs": [
        {
          "internalType": "bytes32",
          "name": "nullifier",
          "type": "bytes32"
        },
        {
          "internalType": "bytes32",
          "name": "_root",
          "type": "bytes32"
        },
        {
          "internalType": "uint256[2]",
          "name": "_pA",
          "type": "uint256[2]"
        },
        {
          "internalType": "uint256[2][2]",
          "name": "_pB",
          "type": "uint256[2][2]"
        },
        {
          "internalType": "uint256[2]",
          "name": "_pC",
          "type": "uint256[2]"
        },
        {
          "internalType": "uint256[1]",
          "name": "_pubSignals",
          "type": "uint256[1]"
        }
      ],
      "name": "loanWithdraw",
      "outputs": [],
      "stateMutability": "payable",
      "type": "function"
    },
    {
      "inputs": [],
      "name": "nextIndex",
      "outputs": [
        {
          "internalType": "uint32",
          "name": "",
          "type": "uint32"
        }
      ],
      "stateMutability": "view",
      "type": "function"
    },
    {
      "inputs": [
        {
          "internalType": "bytes32",
          "name": "",
          "type": "bytes32"
        }
      ],
      "name": "nullifiers",
      "outputs": [
        {
          "internalType": "bool",
          "name": "",
          "type": "bool"
        }
      ],
      "stateMutability": "view",
      "type": "function"
    },
    {
      "inputs": [
        {
          "internalType": "uint256",
          "name": "",
          "type": "uint256"
        }
      ],
      "name": "roots",
      "outputs": [
        {
          "internalType": "bytes32",
          "name": "",
          "type": "bytes32"
        }
      ],
      "stateMutability": "view",
      "type": "function"
    },
    {
      "inputs": [
        {
          "internalType": "bytes4",
          "name": "interfaceId",
          "type": "bytes4"
        }
      ],
      "name": "supportsInterface",
      "outputs": [
        {
          "internalType": "bool",
          "name": "",
          "type": "bool"
        }
      ],
      "stateMutability": "view",
      "type": "function"
    },
    {
      "inputs": [
        {
          "internalType": "uint256",
          "name": "",
          "type": "uint256"
        },
        {
          "internalType": "uint256",
          "name": "",
          "type": "uint256"
        }
      ],
      "name": "tree",
      "outputs": [
        {
          "internalType": "bytes32",
          "name": "",
          "type": "bytes32"
        }
      ],
      "stateMutability": "view",
      "type": "function"
    },
    {
      "inputs": [],
      "name": "usdc",
      "outputs": [
        {
          "internalType": "contract IERC20",
          "name": "",
          "type": "address"
        }
      ],
      "stateMutability": "view",
      "type": "function"
    },
    {
      "inputs": [],
      "name": "verifier",
      "outputs": [
        {
          "internalType": "contract IVerifier",
          "name": "",
          "type": "address"
        }
      ],
      "stateMutability": "view",
      "type": "function"
    },
    {
      "inputs": [
        {
          "internalType": "uint256",
          "name": "index",
          "type": "uint256"
        }
      ],
      "name": "zeros",
      "outputs": [
        {
          "internalType": "bytes32",
          "name": "",
          "type": "bytes32"
        }
      ],
      "stateMutability": "pure",
      "type": "function"
    }
  ],
  "bytecode": "0x610100604052600380546001600160401b03191690553480156200002257600080fd5b506040516200186e3803806200186e8339810160408190526200004591620002fc565b8082846001600160a01b03811662000078576040516335fdcccd60e21b8152600060048201526024015b60405180910390fd5b6001600160a01b031660805263ffffffff8216620000e55760405162461bcd60e51b815260206004820152602360248201527f5f6c6576656c732073686f756c642062652067726561746572207468616e207a60448201526265726f60e81b60648201526084016200006f565b60208263ffffffff16106200013d5760405162461bcd60e51b815260206004820152601e60248201527f5f6c6576656c732073686f756c64206265206c657373207468616e203332000060448201526064016200006f565b6000805463ffffffff191663ffffffff84161781556001600160a01b03821660a0525b8263ffffffff168163ffffffff161015620001a9576200018663ffffffff821662000208565b63ffffffff82166000908152600160208190526040909120919091550162000160565b50620001bb63ffffffff831662000208565b6000805260026020527fac33ff75c19e70fe83507db0d683fd3465c996598dc972688b7ace676c89077b55505060016005555050506001600160a01b0391821660c0521660e05262000384565b6000816000036200023a57507f2a09a9fd93c590c26b91effbb2499f07e8f7aa12e2b4940a3aed2411cb65e11c919050565b816001036200026a57507f17192e62a157556849d93b3c6be1e2bd1f3f1660d10dd9b1ffc429aa9021252c919050565b816002036200029a57507f04d5abb4c7f77e3b5d8bc7a049d5ba6e79f29c5c5a9edf0a58726e653e8bc0c7919050565b60405162461bcd60e51b815260206004820152601560248201527f57726f6e6744656661756c745a65726f496e646578000000000000000000000060448201526064016200006f565b6001600160a01b0381168114620002f957600080fd5b50565b600080600080600060a086880312156200031557600080fd5b85516200032281620002e3565b60208701519095506200033581620002e3565b60408701519094506200034881620002e3565b60608701519093506200035b81620002e3565b608087015190925063ffffffff811681146200037657600080fd5b809150509295509295909350565b60805160a05160c05160e051611494620003da600039600081816102250152610a180152600081816101d901526109770152600081816104580152610cb2015260008181610381015261059f01526114946000f3fe6080604052600436106101355760003560e01c806390eeb02b116100ab578063e82955881161006f578063e829558814610411578063ec73295914610431578063ed33639f14610446578063f178e47c1461047a578063f52eda3c146104a7578063fc7e9c6f146104ba57600080fd5b806390eeb02b14610355578063b0f479a114610372578063ba70f757146103a5578063c2b40ae4146103cf578063cd87a3b4146103fc57600080fd5b8063414a37ba116100fd578063414a37ba146102475780634ecf518b146102895780636d9833e3146102bb57806378c2d335146102db57806385572ffb146103135780638ea3099e1461033557600080fd5b806301ffc9a71461013a578063263596a51461016f5780632997e86b146101975780632b7ac3f3146101c75780633e413bee14610213575b600080fd5b34801561014657600080fd5b5061015a610155366004610db4565b6104df565b60405190151581526020015b60405180910390f35b34801561017b57600080fd5b5060065460075460408051928352602083019190915201610166565b3480156101a357600080fd5b5061015a6101b2366004610de5565b60086020526000908152604090205460ff1681565b3480156101d357600080fd5b506101fb7f000000000000000000000000000000000000000000000000000000000000000081565b6040516001600160a01b039091168152602001610166565b34801561021f57600080fd5b506101fb7f000000000000000000000000000000000000000000000000000000000000000081565b34801561025357600080fd5b5061027b7f30644e72e131a029b85045b68181585d2833e84879b9709143e1f593f000000181565b604051908152602001610166565b34801561029557600080fd5b506000546102a69063ffffffff1681565b60405163ffffffff9091168152602001610166565b3480156102c757600080fd5b5061015a6102d6366004610de5565b610516565b3480156102e757600080fd5b5061027b6102f6366004610dfe565b600460209081526000928352604080842090915290825290205481565b34801561031f57600080fd5b5061033361032e366004610e20565b610594565b005b34801561034157600080fd5b5061027b610350366004610e70565b6105f8565b34801561036157600080fd5b506003546102a69063ffffffff1681565b34801561037e57600080fd5b507f00000000000000000000000000000000000000000000000000000000000000006101fb565b3480156103b157600080fd5b5060035463ffffffff1660009081526002602052604090205461027b565b3480156103db57600080fd5b5061027b6103ea366004610de5565b60026020526000908152604090205481565b34801561040857600080fd5b506102a6601e81565b34801561041d57600080fd5b5061027b61042c366004610de5565b61076e565b34801561043d57600080fd5b5061027b600081565b34801561045257600080fd5b506101fb7f000000000000000000000000000000000000000000000000000000000000000081565b34801561048657600080fd5b5061027b610495366004610de5565b60016020526000908152604090205481565b6103336104b5366004610eb6565b61083d565b3480156104c657600080fd5b506003546102a690640100000000900463ffffffff1681565b60006001600160e01b031982166385572ffb60e01b148061051057506001600160e01b031982166301ffc9a760e01b145b92915050565b600081810361052757506000919050565b60035463ffffffff16805b63ffffffff81166000908152600260205260409020548403610558575060019392505050565b8063ffffffff1660000361056a5750601e5b8061057481610f47565b9150508163ffffffff168163ffffffff1603610532575060009392505050565b336001600160a01b037f000000000000000000000000000000000000000000000000000000000000000016146105e4576040516335fdcccd60e21b81523360048201526024015b60405180910390fd5b6105f56105f082611134565b610ade565b50565b60007f30644e72e131a029b85045b68181585d2833e84879b9709143e1f593f000000183106106695760405162461bcd60e51b815260206004820181905260248201527f5f6c6566742073686f756c6420626520696e7369646520746865206669656c6460448201526064016105db565b7f30644e72e131a029b85045b68181585d2833e84879b9709143e1f593f000000182106106e25760405162461bcd60e51b815260206004820152602160248201527f5f72696768742073686f756c6420626520696e7369646520746865206669656c6044820152601960fa1b60648201526084016105db565b6040805180820182528481526020810184905290516314d2f97b60e11b8152839185916001600160a01b038816916329a5f2f69161072391906004016111e1565b602060405180830381865afa158015610740573d6000803e3d6000fd5b505050506040513d601f19601f820116820180604052508101906107649190611212565b9695505050505050565b60008160000361079f57507f2a09a9fd93c590c26b91effbb2499f07e8f7aa12e2b4940a3aed2411cb65e11c919050565b816001036107ce57507f17192e62a157556849d93b3c6be1e2bd1f3f1660d10dd9b1ffc429aa9021252c919050565b816002036107fd57507f04d5abb4c7f77e3b5d8bc7a049d5ba6e79f29c5c5a9edf0a58726e653e8bc0c7919050565b60405162461bcd60e51b81526020600482015260156024820152740aee4dedcce88caccc2ead8e8b4cae4de92dcc8caf605b1b60448201526064016105db565b60026005540361088f5760405162461bcd60e51b815260206004820152601f60248201527f5265656e7472616e637947756172643a207265656e7472616e742063616c6c0060448201526064016105db565b600260055560006108a28235600a61122b565b6108ad90601261122b565b60008881526008602052604090205490915060ff16156109035760405162461bcd60e51b815260206004820152601160248201527020b63932b0b23c903bb4ba34323930bbb760791b60448201526064016105db565b6000878152600860205260409020805460ff1916600117905561092586610516565b6109605760405162461bcd60e51b815260206004820152600c60248201526b1a5b9d985b1a59081c9bdbdd60a21b60448201526064016105db565b6040516343753b4d60e01b81526001600160a01b037f000000000000000000000000000000000000000000000000000000000000000016906343753b4d906109b2908890889088908890600401611242565b602060405180830381865afa1580156109cf573d6000803e3d6000fd5b505050506040513d601f19601f820116820180604052508101906109f3919061128e565b6109fc57600080fd5b60405163a9059cbb60e01b8152336004820152602481018290527f00000000000000000000000000000000000000000000000000000000000000006001600160a01b03169063a9059cbb906044016020604051808303816000875af1158015610a69573d6000803e3d6000fd5b505050506040513d601f19601f82011682018060405250810190610a8d919061128e565b610ad05760405162461bcd60e51b81526020600482015260146024820152731554d110c81d1c985b9cd9995c8819985a5b195960621b60448201526064016105db565b505060016005555050505050565b805160065560608101518051610afc91602091810182019101611212565b60078181556000918252600860205260408220805460ff1916905554610b2190610b5d565b63ffffffff169050806007547fb29967356ba2c03d8d98b19798d99efd66b46787fad83d91089d83e45941f61f60405160405180910390a35050565b60035460008054909163ffffffff640100000000909104811691610b83911660026113c1565b63ffffffff168163ffffffff1603610bf65760405162461bcd60e51b815260206004820152603060248201527f4d65726b6c6520747265652069732066756c6c2e204e6f206d6f7265206c656160448201526f1d995cc818d85b88189948185919195960821b60648201526084016105db565b63ffffffff811660009081527f17ef568e3e12ab5b9c7254a8d58478811de00f9e6eb34345acd53bf8fd09d3ec602052604081208490558190849080805b60005463ffffffff9081169082161015610d2657610c536002866113f4565b63ffffffff16600003610c9157839250610c728163ffffffff1661076e565b63ffffffff821660009081526001602052604090208590559150610cad565b63ffffffff811660009081526001602052604090205492508391505b610cd87f000000000000000000000000000000000000000000000000000000000000000084846105f8565b9350610ce5600286611417565b94508360046000610cf784600161143a565b63ffffffff908116825260208083019390935260409182016000908120918a1681529252902055600101610c34565b50600354600090601e90610d419063ffffffff16600161143a565b610d4b91906113f4565b6003805463ffffffff191663ffffffff831690811790915560009081526002602052604090208590559050610d8186600161143a565b6003805463ffffffff929092166401000000000267ffffffff000000001990921691909117905550939695505050505050565b600060208284031215610dc657600080fd5b81356001600160e01b031981168114610dde57600080fd5b9392505050565b600060208284031215610df757600080fd5b5035919050565b60008060408385031215610e1157600080fd5b50508035926020909101359150565b600060208284031215610e3257600080fd5b813567ffffffffffffffff811115610e4957600080fd5b820160a08185031215610dde57600080fd5b6001600160a01b03811681146105f557600080fd5b600080600060608486031215610e8557600080fd5b8335610e9081610e5b565b95602085013595506040909401359392505050565b806040810183101561051057600080fd5b60008060008060008061016080888a031215610ed157600080fd5b8735965060208801359550610ee98960408a01610ea5565b9450610100880189811115610efd57600080fd5b608089019450610f0d8a82610ea5565b935050888189011115610f1f57600080fd5b50610140870190509295509295509295565b634e487b7160e01b600052601160045260246000fd5b600063ffffffff821680610f5d57610f5d610f31565b6000190192915050565b634e487b7160e01b600052604160045260246000fd5b6040805190810167ffffffffffffffff81118282101715610fa057610fa0610f67565b60405290565b60405160a0810167ffffffffffffffff81118282101715610fa057610fa0610f67565b604051601f8201601f1916810167ffffffffffffffff81118282101715610ff257610ff2610f67565b604052919050565b803567ffffffffffffffff8116811461101257600080fd5b919050565b600082601f83011261102857600080fd5b813567ffffffffffffffff81111561104257611042610f67565b611055601f8201601f1916602001610fc9565b81815284602083860101111561106a57600080fd5b816020850160208301376000918101602001919091529392505050565b600082601f83011261109857600080fd5b8135602067ffffffffffffffff8211156110b4576110b4610f67565b6110c2818360051b01610fc9565b82815260069290921b840181019181810190868411156110e157600080fd5b8286015b8481101561112957604081890312156110fe5760008081fd5b611106610f7d565b813561111181610e5b565b815281850135858201528352918301916040016110e5565b509695505050505050565b600060a0823603121561114657600080fd5b61114e610fa6565b8235815261115e60208401610ffa565b6020820152604083013567ffffffffffffffff8082111561117e57600080fd5b61118a36838701611017565b604084015260608501359150808211156111a357600080fd5b6111af36838701611017565b606084015260808501359150808211156111c857600080fd5b506111d536828601611087565b60808301525092915050565b60408101818360005b60028110156112095781518352602092830192909101906001016111ea565b50505092915050565b60006020828403121561122457600080fd5b5051919050565b808202811582820484141761051057610510610f31565b61012081016040808784378083018660005b600281101561127157838284379183019190830190600101611254565b505050808560c08501375060208361010084013795945050505050565b6000602082840312156112a057600080fd5b81518015158114610dde57600080fd5b600181815b808511156112ed578163ffffffff048211156112d3576112d3610f31565b808516156112e057918102915b93841c93908002906112b5565b509250929050565b60008261130457506001610510565b8161131157506000610510565b8160018114611327576002811461133157611362565b6001915050610510565b60ff84111561134257611342610f31565b6001841b915063ffffffff82111561135c5761135c610f31565b50610510565b5060208310610133831016604e8410600b8410161715611399575081810a63ffffffff81111561139457611394610f31565b610510565b6113a383836112b0565b8063ffffffff048211156113b9576113b9610f31565b029392505050565b600063ffffffff6113d68185168285166112f5565b949350505050565b634e487b7160e01b600052601260045260246000fd5b600063ffffffff8084168061140b5761140b6113de565b92169190910692915050565b600063ffffffff8084168061142e5761142e6113de565b92169190910492915050565b63ffffffff81811683821601908082111561145757611457610f31565b509291505056fea26469706673582212206e54336d86da10db9e01b0a3a5793bdab4baa7f43717e6974a85942013ced38164736f6c63430008180033",
  "linkReferences": {},
  "deployedLinkReferences": {}
}