{
  "_format": "hh-sol-artifact-1",
  "contractName": "Deposit",
  "sourceName": "contracts/Deposit.sol",
  "abi": [
    {
      "inputs": [
        {
          "internalType": "address",
          "name": "_router",
          "type": "address"
        },
        {
          "internalType": "address",
          "name": "_link",
          "type": "address"
        }
      ],
      "stateMutability": "nonpayable",
      "type": "constructor"
    },
    {
      "inputs": [
        {
          "internalType": "uint256",
          "name": "currentBalance",
          "type": "uint256"
        },
        {
          "internalType": "uint256",
          "name": "calculatedFees",
          "type": "uint256"
        }
      ],
      "name": "NotEnoughBalance",
      "type": "error"
    },
    {
      "anonymous": false,
      "inputs": [
        {
          "indexed": true,
          "internalType": "address",
          "name": "sender",
          "type": "address"
        },
        {
          "indexed": false,
          "internalType": "uint256",
          "name": "amount",
          "type": "uint256"
        }
      ],
      "name": "LinkReceived",
      "type": "event"
    },
    {
      "anonymous": false,
      "inputs": [
        {
          "indexed": true,
          "internalType": "bytes32",
          "name": "messageId",
          "type": "bytes32"
        },
        {
          "indexed": true,
          "internalType": "uint64",
          "name": "scrollSepoliaDest",
          "type": "uint64"
        },
        {
          "indexed": false,
          "internalType": "address",
          "name": "receiver",
          "type": "address"
        },
        {
          "indexed": false,
          "internalType": "bytes32",
          "name": "text",
          "type": "bytes32"
        },
        {
          "indexed": false,
          "internalType": "address",
          "name": "feeToken",
          "type": "address"
        },
        {
          "indexed": false,
          "internalType": "uint256",
          "name": "fees",
          "type": "uint256"
        }
      ],
      "name": "MessageSent",
      "type": "event"
    },
    {
      "anonymous": false,
      "inputs": [
        {
          "indexed": true,
          "internalType": "address",
          "name": "from",
          "type": "address"
        },
        {
          "indexed": true,
          "internalType": "address",
          "name": "to",
          "type": "address"
        }
      ],
      "name": "OwnershipTransferRequested",
      "type": "event"
    },
    {
      "anonymous": false,
      "inputs": [
        {
          "indexed": true,
          "internalType": "address",
          "name": "from",
          "type": "address"
        },
        {
          "indexed": true,
          "internalType": "address",
          "name": "to",
          "type": "address"
        }
      ],
      "name": "OwnershipTransferred",
      "type": "event"
    },
    {
      "inputs": [],
      "name": "acceptOwnership",
      "outputs": [],
      "stateMutability": "nonpayable",
      "type": "function"
    },
    {
      "inputs": [],
      "name": "destinationScrollSepolia",
      "outputs": [
        {
          "internalType": "uint64",
          "name": "",
          "type": "uint64"
        }
      ],
      "stateMutability": "view",
      "type": "function"
    },
    {
      "inputs": [
        {
          "internalType": "address",
          "name": "sender",
          "type": "address"
        },
        {
          "internalType": "uint256",
          "name": "amount",
          "type": "uint256"
        },
        {
          "internalType": "bytes",
          "name": "",
          "type": "bytes"
        }
      ],
      "name": "onTokenTransfer",
      "outputs": [],
      "stateMutability": "nonpayable",
      "type": "function"
    },
    {
      "inputs": [],
      "name": "owner",
      "outputs": [
        {
          "internalType": "address",
          "name": "",
          "type": "address"
        }
      ],
      "stateMutability": "view",
      "type": "function"
    },
    {
      "inputs": [
        {
          "internalType": "address",
          "name": "receiver",
          "type": "address"
        },
        {
          "internalType": "bytes32",
          "name": "text",
          "type": "bytes32"
        }
      ],
      "name": "sendMessage",
      "outputs": [
        {
          "internalType": "bytes32",
          "name": "messageId",
          "type": "bytes32"
        }
      ],
      "stateMutability": "nonpayable",
      "type": "function"
    },
    {
      "inputs": [
        {
          "internalType": "address",
          "name": "to",
          "type": "address"
        }
      ],
      "name": "transferOwnership",
      "outputs": [],
      "stateMutability": "nonpayable",
      "type": "function"
    },
    {
      "inputs": [
        {
          "internalType": "address",
          "name": "",
          "type": "address"
        }
      ],
      "name": "userLinkTokenBalance",
      "outputs": [
        {
          "internalType": "uint256",
          "name": "",
          "type": "uint256"
        }
      ],
      "stateMutability": "view",
      "type": "function"
    }
  ],
  "bytecode": "0x608060405234801561001057600080fd5b50604051610cdf380380610cdf83398101604081905261002f916101b2565b33806000816100855760405162461bcd60e51b815260206004820152601860248201527f43616e6e6f7420736574206f776e657220746f207a65726f000000000000000060448201526064015b60405180910390fd5b600080546001600160a01b0319166001600160a01b03848116919091179091558116156100b5576100b5816100ed565b5050600380546001600160a01b039485166001600160a01b0319918216179091556004805493909416921691909117909155506101e5565b336001600160a01b038216036101455760405162461bcd60e51b815260206004820152601760248201527f43616e6e6f74207472616e7366657220746f2073656c66000000000000000000604482015260640161007c565b600180546001600160a01b0319166001600160a01b0383811691821790925560008054604051929316917fed8889f560326eb138920d842192f0eb3dd22b4f139c87a2c57538e05bae12789190a350565b80516001600160a01b03811681146101ad57600080fd5b919050565b600080604083850312156101c557600080fd5b6101ce83610196565b91506101dc60208401610196565b90509250929050565b610aeb806101f46000396000f3fe608060405234801561001057600080fd5b506004361061007d5760003560e01c806379ba50971161005b57806379ba5097146100f05780638da5cb5b146100fa578063a4c0ed3614610115578063f2fde38b1461012857600080fd5b806344639e9c146100825780636df2ddd8146100af57806372ebc938146100d0575b600080fd5b610091671fa3b5d5b7cd348b81565b60405167ffffffffffffffff90911681526020015b60405180910390f35b6100c26100bd366004610848565b61013b565b6040519081526020016100a6565b6100c26100de366004610872565b60026020526000908152604090205481565b6100f86105bc565b005b6000546040516001600160a01b0390911681526020016100a6565b6100f8610123366004610894565b610666565b6100f8610136366004610872565b61071a565b6040805160a081019091526001600160a01b03831660c082015260009081908060e0810160405160208183030381529060405281526020018460405160200161018691815260200190565b60408051601f19818403018152919052815260200160006040519080825280602002602001820160405280156101e257816020015b60408051808201909152600080825260208201528152602001906001900390816101bb5790505b5081526004546001600160a01b03166020808301919091526040805180820182526207a12080825260019184019182528251602481019190915290511515604480830191909152825180830390910181526064909101825291820180516001600160e01b0316630181dcf160e41b179052909101526003546040516320487ded60e01b81529192506000916001600160a01b03909116906320487ded9061029790671fa3b5d5b7cd348b908690600401610961565b602060405180830381865afa1580156102b4573d6000803e3d6000fd5b505050506040513d601f19601f820116820180604052508101906102d89190610a3e565b3360009081526002602052604090205490915081111561032c573360009081526002602052604090819020549051634787a10360e11b81526004810191909152602481018290526044015b60405180910390fd5b600480546040516370a0823160e01b815230928101929092526001600160a01b0316906370a0823190602401602060405180830381865afa158015610375573d6000803e3d6000fd5b505050506040513d601f19601f820116820180604052508101906103999190610a3e565b81111561043157600480546040516370a0823160e01b815230928101929092526001600160a01b0316906370a0823190602401602060405180830381865afa1580156103e9573d6000803e3d6000fd5b505050506040513d601f19601f8201168201806040525081019061040d9190610a3e565b604051634787a10360e11b8152600481019190915260248101829052604401610323565b6004805460035460405163095ea7b360e01b81526001600160a01b039182169381019390935260248301849052169063095ea7b3906044016020604051808303816000875af1158015610488573d6000803e3d6000fd5b505050506040513d601f19601f820116820180604052508101906104ac9190610a57565b5033600090815260026020526040812080548392906104cc908490610a8f565b90915550506003546040516396f4e9f960e01b81526001600160a01b03909116906396f4e9f99061050b90671fa3b5d5b7cd348b908690600401610961565b6020604051808303816000875af115801561052a573d6000803e3d6000fd5b505050506040513d601f19601f8201168201806040525081019061054e9190610a3e565b600454604080516001600160a01b03808a168252602082018990529092169082015260608101839052909350671fa3b5d5b7cd348b9084907f956cff312b4d1cacc31fcee4888e38a3ffa98bc23cd18db44466509472826fe39060800160405180910390a350505b92915050565b6001546001600160a01b0316331461060f5760405162461bcd60e51b815260206004820152601660248201527526bab9ba10313290383937b837b9b2b21037bbb732b960511b6044820152606401610323565b60008054336001600160a01b0319808316821784556001805490911690556040516001600160a01b0390921692909183917f8be0079c531659141344cd1fd0a4f28419497f9722a3daafe3b4186f6b6457e091a350565b6004546001600160a01b031633146106b25760405162461bcd60e51b815260206004820152600f60248201526e27b7363c902624a725903a37b5b2b760891b6044820152606401610323565b6001600160a01b038416600090815260026020526040812080548592906106da908490610aa2565b909155505060405183815233907f5795ff2ec97ccf4c9fde1f8e56ed5220b5c63f2874f19f5d20c220a3215431fa9060200160405180910390a250505050565b61072261072e565b61072b81610783565b50565b6000546001600160a01b031633146107815760405162461bcd60e51b815260206004820152601660248201527527b7363c9031b0b63630b1363290313c9037bbb732b960511b6044820152606401610323565b565b336001600160a01b038216036107db5760405162461bcd60e51b815260206004820152601760248201527f43616e6e6f74207472616e7366657220746f2073656c660000000000000000006044820152606401610323565b600180546001600160a01b0319166001600160a01b0383811691821790925560008054604051929316917fed8889f560326eb138920d842192f0eb3dd22b4f139c87a2c57538e05bae12789190a350565b80356001600160a01b038116811461084357600080fd5b919050565b6000806040838503121561085b57600080fd5b6108648361082c565b946020939093013593505050565b60006020828403121561088457600080fd5b61088d8261082c565b9392505050565b600080600080606085870312156108aa57600080fd5b6108b38561082c565b935060208501359250604085013567ffffffffffffffff808211156108d757600080fd5b818701915087601f8301126108eb57600080fd5b8135818111156108fa57600080fd5b88602082850101111561090c57600080fd5b95989497505060200194505050565b6000815180845260005b8181101561094157602081850181015186830182015201610925565b506000602082860101526020601f19601f83011685010191505092915050565b6000604067ffffffffffffffff851683526020604081850152845160a0604086015261099060e086018261091b565b905081860151603f19808784030160608801526109ad838361091b565b6040890151888203830160808a01528051808352908601945060009350908501905b80841015610a0157845180516001600160a01b03168352860151868301529385019360019390930192908601906109cf565b5060608901516001600160a01b031660a08901526080890151888203830160c08a01529550610a30818761091b565b9a9950505050505050505050565b600060208284031215610a5057600080fd5b5051919050565b600060208284031215610a6957600080fd5b8151801515811461088d57600080fd5b634e487b7160e01b600052601160045260246000fd5b818103818111156105b6576105b6610a79565b808201808211156105b6576105b6610a7956fea264697066735822122094e3d15a1fd76ef6f49d520a1e5e516ff14fbfb50d913ff75c5ac84954e8ec1b64736f6c63430008180033",
  "linkReferences": {},
  "deployedLinkReferences": {}
}