{
  "_format": "hh-sol-artifact-1",
  "contractName": "NFTLocker",
  "sourceName": "contracts/NFTLocker.sol",
  "abi": [
    {
      "inputs": [
        {
          "internalType": "address",
          "name": "_usdc",
          "type": "address"
        }
      ],
      "stateMutability": "nonpayable",
      "type": "constructor"
    },
    {
      "inputs": [],
      "name": "LOCK_PERIOD",
      "outputs": [
        {
          "internalType": "uint256",
          "name": "",
          "type": "uint256"
        }
      ],
      "stateMutability": "view",
      "type": "function"
    },
    {
      "inputs": [],
      "name": "REWARD_AMOUNT",
      "outputs": [
        {
          "internalType": "uint256",
          "name": "",
          "type": "uint256"
        }
      ],
      "stateMutability": "view",
      "type": "function"
    },
    {
      "inputs": [
        {
          "internalType": "address",
          "name": "nftAddress",
          "type": "address"
        },
        {
          "internalType": "uint256",
          "name": "tokenId",
          "type": "uint256"
        }
      ],
      "name": "deposit",
      "outputs": [],
      "stateMutability": "nonpayable",
      "type": "function"
    },
    {
      "inputs": [
        {
          "internalType": "address",
          "name": "",
          "type": "address"
        },
        {
          "internalType": "uint256",
          "name": "",
          "type": "uint256"
        }
      ],
      "name": "depositsInfo",
      "outputs": [
        {
          "internalType": "address",
          "name": "owner",
          "type": "address"
        },
        {
          "internalType": "uint256",
          "name": "unlockTime",
          "type": "uint256"
        },
        {
          "internalType": "bool",
          "name": "withdrawn",
          "type": "bool"
        }
      ],
      "stateMutability": "view",
      "type": "function"
    },
    {
      "inputs": [
        {
          "internalType": "address",
          "name": "nftAddress",
          "type": "address"
        },
        {
          "internalType": "uint256",
          "name": "tokenId",
          "type": "uint256"
        }
      ],
      "name": "getUnlockTime",
      "outputs": [
        {
          "internalType": "uint256",
          "name": "",
          "type": "uint256"
        }
      ],
      "stateMutability": "view",
      "type": "function"
    },
    {
      "inputs": [
        {
          "internalType": "address",
          "name": "nftAddress",
          "type": "address"
        },
        {
          "internalType": "uint256",
          "name": "tokenId",
          "type": "uint256"
        }
      ],
      "name": "isWithdrawable",
      "outputs": [
        {
          "internalType": "bool",
          "name": "",
          "type": "bool"
        }
      ],
      "stateMutability": "view",
      "type": "function"
    },
    {
      "inputs": [],
      "name": "ntfPools",
      "outputs": [
        {
          "internalType": "uint256",
          "name": "",
          "type": "uint256"
        }
      ],
      "stateMutability": "view",
      "type": "function"
    },
    {
      "inputs": [],
      "name": "usdc",
      "outputs": [
        {
          "internalType": "contract IERC20",
          "name": "",
          "type": "address"
        }
      ],
      "stateMutability": "view",
      "type": "function"
    },
    {
      "inputs": [
        {
          "internalType": "address",
          "name": "nftAddress",
          "type": "address"
        },
        {
          "internalType": "uint256",
          "name": "tokenId",
          "type": "uint256"
        }
      ],
      "name": "withdraw",
      "outputs": [],
      "stateMutability": "nonpayable",
      "type": "function"
    }
  ],
  "bytecode": "0x60a060405234801561001057600080fd5b50604051610af9380380610af983398101604081905261002f91610045565b60016000556001600160a01b0316608052610075565b60006020828403121561005757600080fd5b81516001600160a01b038116811461006e57600080fd5b9392505050565b608051610a5c61009d6000396000818160ba0152818161056101526108130152610a5c6000f3fe608060405234801561001057600080fd5b50600436106100935760003560e01c8063a8b0d06111610066578063a8b0d06114610175578063cf84944214610198578063d45d30e7146101a8578063ec531d92146101b1578063f3fef3a3146101ea57600080fd5b80631820cabb146100985780633e413bee146100b557806347e7ef24146100f4578063640977ff14610109575b600080fd5b6100a262093a8081565b6040519081526020015b60405180910390f35b6100dc7f000000000000000000000000000000000000000000000000000000000000000081565b6040516001600160a01b0390911681526020016100ac565b610107610102366004610978565b6101fd565b005b61014e610117366004610978565b600260208181526000938452604080852090915291835291208054600182015491909201546001600160a01b039092169160ff1683565b604080516001600160a01b03909416845260208401929092521515908201526060016100ac565b610188610183366004610978565b610623565b60405190151581526020016100ac565b6100a268056bc75e2d6310000081565b6100a260015481565b6100a26101bf366004610978565b6001600160a01b03919091166000908152600260209081526040808320938352929052206001015490565b6101076101f8366004610978565b6106a2565b6002600054036102545760405162461bcd60e51b815260206004820152601f60248201527f5265656e7472616e637947756172643a207265656e7472616e742063616c6c0060448201526064015b60405180910390fd5b60026000556040516331a9108f60e11b815260048101829052829033906001600160a01b03831690636352211e90602401602060405180830381865afa1580156102a2573d6000803e3d6000fd5b505050506040513d601f19601f820116820180604052508101906102c691906109a4565b6001600160a01b0316146103105760405162461bcd60e51b81526020600482015260116024820152702737ba103a34329027232a1037bbb732b960791b604482015260640161024b565b60405163020604bf60e21b81526004810183905230906001600160a01b0383169063081812fc90602401602060405180830381865afa158015610357573d6000803e3d6000fd5b505050506040513d601f19601f8201168201806040525081019061037b91906109a4565b6001600160a01b031614806103f9575060405163e985e9c560e01b81523360048201523060248201526001600160a01b0382169063e985e9c590604401602060405180830381865afa1580156103d5573d6000803e3d6000fd5b505050506040513d601f19601f820116820180604052508101906103f991906109c8565b61043d5760405162461bcd60e51b815260206004820152601560248201527410dbdb9d1c9858dd081b9bdd08185c1c1c9bdd9959605a1b604482015260640161024b565b6040516323b872dd60e01b8152336004820152306024820152604481018390526001600160a01b038216906323b872dd90606401600060405180830381600087803b15801561048b57600080fd5b505af115801561049f573d6000803e3d6000fd5b50506040805160608101909152338152915050602081016104c362093a8042610a00565b8152600060209182018190526001600160a01b038681168252600280845260408084208885528552808420865181546001600160a01b03191694169390931783559385015160018084019190915594909301519201805460ff1916921515929092179091558154829190610538908390610a00565b909155505060405163a9059cbb60e01b815233600482015268056bc75e2d6310000060248201527f00000000000000000000000000000000000000000000000000000000000000006001600160a01b03169063a9059cbb906044016020604051808303816000875af11580156105b2573d6000803e3d6000fd5b505050506040513d601f19601f820116820180604052508101906105d691906109c8565b6106195760405162461bcd60e51b81526020600482015260146024820152731554d110c81d1c985b9cd9995c8819985a5b195960621b604482015260640161024b565b5050600160005550565b6001600160a01b038083166000908152600260208181526040808420868552825280842081516060810183528154909616865260018101549286019290925291015460ff1615801591840182905291929190610688575080516001600160a01b031633145b8015610698575080602001514211155b9150505b92915050565b6002600054036106f45760405162461bcd60e51b815260206004820152601f60248201527f5265656e7472616e637947756172643a207265656e7472616e742063616c6c00604482015260640161024b565b600260008181556001600160a01b038085168252602092835260408083208584529093529190208054909116331461075e5760405162461bcd60e51b815260206004820152600d60248201526c2737ba103232b837b9b4ba37b960991b604482015260640161024b565b600281015460ff16156107a75760405162461bcd60e51b815260206004820152601160248201527020b63932b0b23c903bb4ba34323930bbb760791b604482015260640161024b565b80600101544211156107e95760405162461bcd60e51b815260206004820152600b60248201526a13919508195e1c1a5c995960aa1b604482015260640161024b565b6040516323b872dd60e01b815233600482015230602482015268056bc75e2d6310000060448201527f00000000000000000000000000000000000000000000000000000000000000006001600160a01b0316906323b872dd906064016020604051808303816000875af1158015610864573d6000803e3d6000fd5b505050506040513d601f19601f8201168201806040525081019061088891906109c8565b6108c75760405162461bcd60e51b815260206004820152601060248201526f14185e589858dac81c995c5d5a5c995960821b604482015260640161024b565b60028101805460ff19166001908117909155805481906000906108eb908390610a13565b90915550506040516323b872dd60e01b8152306004820152336024820152604481018390526001600160a01b038416906323b872dd90606401600060405180830381600087803b15801561093e57600080fd5b505af1158015610952573d6000803e3d6000fd5b505060016000555050505050565b6001600160a01b038116811461097557600080fd5b50565b6000806040838503121561098b57600080fd5b823561099681610960565b946020939093013593505050565b6000602082840312156109b657600080fd5b81516109c181610960565b9392505050565b6000602082840312156109da57600080fd5b815180151581146109c157600080fd5b634e487b7160e01b600052601160045260246000fd5b8082018082111561069c5761069c6109ea565b8181038181111561069c5761069c6109ea56fea26469706673582212202898f82647af78b9934e74dade074444d4370b9dc1a65de7036923adb327786964736f6c63430008180033",
  "linkReferences": {},
  "deployedLinkReferences": {}
}