{
  "_format": "hh-sol-artifact-1",
  "contractName": "MerkleTreeWithHistory",
  "sourceName": "contracts/MerkleTreeWithHistory.sol",
  "abi": [
    {
      "inputs": [
        {
          "internalType": "uint32",
          "name": "_levels",
          "type": "uint32"
        },
        {
          "internalType": "contract IHasher",
          "name": "_hasher",
          "type": "address"
        }
      ],
      "stateMutability": "nonpayable",
      "type": "constructor"
    },
    {
      "inputs": [],
      "name": "FIELD_SIZE",
      "outputs": [
        {
          "internalType": "uint256",
          "name": "",
          "type": "uint256"
        }
      ],
      "stateMutability": "view",
      "type": "function"
    },
    {
      "inputs": [],
      "name": "ROOT_HISTORY_SIZE",
      "outputs": [
        {
          "internalType": "uint32",
          "name": "",
          "type": "uint32"
        }
      ],
      "stateMutability": "view",
      "type": "function"
    },
    {
      "inputs": [],
      "name": "ZERO_VALUE",
      "outputs": [
        {
          "internalType": "uint256",
          "name": "",
          "type": "uint256"
        }
      ],
      "stateMutability": "view",
      "type": "function"
    },
    {
      "inputs": [],
      "name": "currentRootIndex",
      "outputs": [
        {
          "internalType": "uint32",
          "name": "",
          "type": "uint32"
        }
      ],
      "stateMutability": "view",
      "type": "function"
    },
    {
      "inputs": [
        {
          "internalType": "uint256",
          "name": "",
          "type": "uint256"
        }
      ],
      "name": "filledSubtrees",
      "outputs": [
        {
          "internalType": "bytes32",
          "name": "",
          "type": "bytes32"
        }
      ],
      "stateMutability": "view",
      "type": "function"
    },
    {
      "inputs": [],
      "name": "getLastRoot",
      "outputs": [
        {
          "internalType": "bytes32",
          "name": "",
          "type": "bytes32"
        }
      ],
      "stateMutability": "view",
      "type": "function"
    },
    {
      "inputs": [
        {
          "internalType": "contract IHasher",
          "name": "_hasher",
          "type": "address"
        },
        {
          "internalType": "bytes32",
          "name": "_left",
          "type": "bytes32"
        },
        {
          "internalType": "bytes32",
          "name": "_right",
          "type": "bytes32"
        }
      ],
      "name": "hashLeftRight",
      "outputs": [
        {
          "internalType": "bytes32",
          "name": "",
          "type": "bytes32"
        }
      ],
      "stateMutability": "pure",
      "type": "function"
    },
    {
      "inputs": [],
      "name": "hasher",
      "outputs": [
        {
          "internalType": "contract IHasher",
          "name": "",
          "type": "address"
        }
      ],
      "stateMutability": "view",
      "type": "function"
    },
    {
      "inputs": [
        {
          "internalType": "bytes32",
          "name": "_root",
          "type": "bytes32"
        }
      ],
      "name": "isKnownRoot",
      "outputs": [
        {
          "internalType": "bool",
          "name": "",
          "type": "bool"
        }
      ],
      "stateMutability": "view",
      "type": "function"
    },
    {
      "inputs": [],
      "name": "levels",
      "outputs": [
        {
          "internalType": "uint32",
          "name": "",
          "type": "uint32"
        }
      ],
      "stateMutability": "view",
      "type": "function"
    },
    {
      "inputs": [],
      "name": "nextIndex",
      "outputs": [
        {
          "internalType": "uint32",
          "name": "",
          "type": "uint32"
        }
      ],
      "stateMutability": "view",
      "type": "function"
    },
    {
      "inputs": [
        {
          "internalType": "uint256",
          "name": "",
          "type": "uint256"
        }
      ],
      "name": "roots",
      "outputs": [
        {
          "internalType": "bytes32",
          "name": "",
          "type": "bytes32"
        }
      ],
      "stateMutability": "view",
      "type": "function"
    },
    {
      "inputs": [
        {
          "internalType": "uint256",
          "name": "",
          "type": "uint256"
        },
        {
          "internalType": "uint256",
          "name": "",
          "type": "uint256"
        }
      ],
      "name": "tree",
      "outputs": [
        {
          "internalType": "bytes32",
          "name": "",
          "type": "bytes32"
        }
      ],
      "stateMutability": "view",
      "type": "function"
    },
    {
      "inputs": [
        {
          "internalType": "uint256",
          "name": "index",
          "type": "uint256"
        }
      ],
      "name": "zeros",
      "outputs": [
        {
          "internalType": "bytes32",
          "name": "",
          "type": "bytes32"
        }
      ],
      "stateMutability": "pure",
      "type": "function"
    }
  ],
  "bytecode": "0x60a0604052600380546001600160401b031916905534801561002057600080fd5b5060405161097038038061097083398101604081905261003f9161027e565b60008263ffffffff16116100a65760405162461bcd60e51b815260206004820152602360248201527f5f6c6576656c732073686f756c642062652067726561746572207468616e207a60448201526265726f60e81b60648201526084015b60405180910390fd5b60208263ffffffff16106100fc5760405162461bcd60e51b815260206004820152601e60248201527f5f6c6576656c732073686f756c64206265206c657373207468616e2033320000604482015260640161009d565b6000805463ffffffff191663ffffffff84161781556001600160a01b0382166080525b8263ffffffff168163ffffffff1610156101645761014263ffffffff82166101a7565b63ffffffff82166000908152600160208190526040909120919091550161011f565b5061017463ffffffff83166101a7565b6000805260026020527fac33ff75c19e70fe83507db0d683fd3465c996598dc972688b7ace676c89077b55506102cd9050565b6000816000036101d857507f2a09a9fd93c590c26b91effbb2499f07e8f7aa12e2b4940a3aed2411cb65e11c919050565b8160010361020757507f17192e62a157556849d93b3c6be1e2bd1f3f1660d10dd9b1ffc429aa9021252c919050565b8160020361023657507f04d5abb4c7f77e3b5d8bc7a049d5ba6e79f29c5c5a9edf0a58726e653e8bc0c7919050565b60405162461bcd60e51b815260206004820152601560248201527f57726f6e6744656661756c745a65726f496e6465780000000000000000000000604482015260640161009d565b6000806040838503121561029157600080fd5b825163ffffffff811681146102a557600080fd5b60208401519092506001600160a01b03811681146102c257600080fd5b809150509250929050565b6080516106886102e8600039600061022401526106886000f3fe608060405234801561001057600080fd5b50600436106100ea5760003560e01c8063c2b40ae41161008c578063ec73295911610066578063ec73295914610217578063ed33639f1461021f578063f178e47c1461025e578063fc7e9c6f1461027e57600080fd5b8063c2b40ae4146101dc578063cd87a3b4146101fc578063e82955881461020457600080fd5b806378c2d335116100c857806378c2d335146101715780638ea3099e1461019c57806390eeb02b146101af578063ba70f757146101bf57600080fd5b8063414a37ba146100ef5780634ecf518b146101295780636d9833e31461014e575b600080fd5b6101167f30644e72e131a029b85045b68181585d2833e84879b9709143e1f593f000000181565b6040519081526020015b60405180910390f35b6000546101399063ffffffff1681565b60405163ffffffff9091168152602001610120565b61016161015c36600461055e565b610296565b6040519015158152602001610120565b61011661017f366004610577565b600460209081526000928352604080842090915290825290205481565b6101166101aa366004610599565b610314565b6003546101399063ffffffff1681565b60035463ffffffff16600090815260026020526040902054610116565b6101166101ea36600461055e565b60026020526000908152604090205481565b610139601e81565b61011661021236600461055e565b61048f565b610116600081565b6102467f000000000000000000000000000000000000000000000000000000000000000081565b6040516001600160a01b039091168152602001610120565b61011661026c36600461055e565b60016020526000908152604090205481565b60035461013990640100000000900463ffffffff1681565b60008181036102a757506000919050565b60035463ffffffff16805b63ffffffff811660009081526002602052604090205484036102d8575060019392505050565b8063ffffffff166000036102ea5750601e5b806102f4816105da565b9150508163ffffffff168163ffffffff16036102b2575060009392505050565b60007f30644e72e131a029b85045b68181585d2833e84879b9709143e1f593f0000001831061038a5760405162461bcd60e51b815260206004820181905260248201527f5f6c6566742073686f756c6420626520696e7369646520746865206669656c6460448201526064015b60405180910390fd5b7f30644e72e131a029b85045b68181585d2833e84879b9709143e1f593f000000182106104035760405162461bcd60e51b815260206004820152602160248201527f5f72696768742073686f756c6420626520696e7369646520746865206669656c6044820152601960fa1b6064820152608401610381565b6040805180820182528481526020810184905290516314d2f97b60e11b8152839185916001600160a01b038816916329a5f2f6916104449190600401610608565b602060405180830381865afa158015610461573d6000803e3d6000fd5b505050506040513d601f19601f820116820180604052508101906104859190610639565b9695505050505050565b6000816000036104c057507f2a09a9fd93c590c26b91effbb2499f07e8f7aa12e2b4940a3aed2411cb65e11c919050565b816001036104ef57507f17192e62a157556849d93b3c6be1e2bd1f3f1660d10dd9b1ffc429aa9021252c919050565b8160020361051e57507f04d5abb4c7f77e3b5d8bc7a049d5ba6e79f29c5c5a9edf0a58726e653e8bc0c7919050565b60405162461bcd60e51b81526020600482015260156024820152740aee4dedcce88caccc2ead8e8b4cae4de92dcc8caf605b1b6044820152606401610381565b60006020828403121561057057600080fd5b5035919050565b6000806040838503121561058a57600080fd5b50508035926020909101359150565b6000806000606084860312156105ae57600080fd5b83356001600160a01b03811681146105c557600080fd5b95602085013595506040909401359392505050565b600063ffffffff8216806105fe57634e487b7160e01b600052601160045260246000fd5b6000190192915050565b60408101818360005b6002811015610630578151835260209283019290910190600101610611565b50505092915050565b60006020828403121561064b57600080fd5b505191905056fea2646970667358221220808224318f6d783580039faae1987ff6caaef54b07d942a356bf4c2c94c80e7264736f6c63430008180033",
  "linkReferences": {},
  "deployedLinkReferences": {}
}