{
  "_format": "hh-sol-artifact-1",
  "contractName": "NFT",
  "sourceName": "contracts/tokens/NFT.sol",
  "abi": [
    {
      "inputs": [],
      "stateMutability": "nonpayable",
      "type": "constructor"
    },
    {
      "inputs": [
        {
          "internalType": "address",
          "name": "sender",
          "type": "address"
        },
        {
          "internalType": "uint256",
          "name": "tokenId",
          "type": "uint256"
        },
        {
          "internalType": "address",
          "name": "owner",
          "type": "address"
        }
      ],
      "name": "ERC721IncorrectOwner",
      "type": "error"
    },
    {
      "inputs": [
        {
          "internalType": "address",
          "name": "operator",
          "type": "address"
        },
        {
          "internalType": "uint256",
          "name": "tokenId",
          "type": "uint256"
        }
      ],
      "name": "ERC721InsufficientApproval",
      "type": "error"
    },
    {
      "inputs": [
        {
          "internalType": "address",
          "name": "approver",
          "type": "address"
        }
      ],
      "name": "ERC721InvalidApprover",
      "type": "error"
    },
    {
      "inputs": [
        {
          "internalType": "address",
          "name": "operator",
          "type": "address"
        }
      ],
      "name": "ERC721InvalidOperator",
      "type": "error"
    },
    {
      "inputs": [
        {
          "internalType": "address",
          "name": "owner",
          "type": "address"
        }
      ],
      "name": "ERC721InvalidOwner",
      "type": "error"
    },
    {
      "inputs": [
        {
          "internalType": "address",
          "name": "receiver",
          "type": "address"
        }
      ],
      "name": "ERC721InvalidReceiver",
      "type": "error"
    },
    {
      "inputs": [
        {
          "internalType": "address",
          "name": "sender",
          "type": "address"
        }
      ],
      "name": "ERC721InvalidSender",
      "type": "error"
    },
    {
      "inputs": [
        {
          "internalType": "uint256",
          "name": "tokenId",
          "type": "uint256"
        }
      ],
      "name": "ERC721NonexistentToken",
      "type": "error"
    },
    {
      "anonymous": false,
      "inputs": [
        {
          "indexed": true,
          "internalType": "address",
          "name": "owner",
          "type": "address"
        },
        {
          "indexed": true,
          "internalType": "address",
          "name": "approved",
          "type": "address"
        },
        {
          "indexed": true,
          "internalType": "uint256",
          "name": "tokenId",
          "type": "uint256"
        }
      ],
      "name": "Approval",
      "type": "event"
    },
    {
      "anonymous": false,
      "inputs": [
        {
          "indexed": true,
          "internalType": "address",
          "name": "owner",
          "type": "address"
        },
        {
          "indexed": true,
          "internalType": "address",
          "name": "operator",
          "type": "address"
        },
        {
          "indexed": false,
          "internalType": "bool",
          "name": "approved",
          "type": "bool"
        }
      ],
      "name": "ApprovalForAll",
      "type": "event"
    },
    {
      "anonymous": false,
      "inputs": [
        {
          "indexed": true,
          "internalType": "address",
          "name": "from",
          "type": "address"
        },
        {
          "indexed": true,
          "internalType": "address",
          "name": "to",
          "type": "address"
        },
        {
          "indexed": true,
          "internalType": "uint256",
          "name": "tokenId",
          "type": "uint256"
        }
      ],
      "name": "Transfer",
      "type": "event"
    },
    {
      "inputs": [
        {
          "internalType": "address",
          "name": "to",
          "type": "address"
        },
        {
          "internalType": "uint256",
          "name": "tokenId",
          "type": "uint256"
        }
      ],
      "name": "approve",
      "outputs": [],
      "stateMutability": "nonpayable",
      "type": "function"
    },
    {
      "inputs": [
        {
          "internalType": "address",
          "name": "owner",
          "type": "address"
        }
      ],
      "name": "balanceOf",
      "outputs": [
        {
          "internalType": "uint256",
          "name": "",
          "type": "uint256"
        }
      ],
      "stateMutability": "view",
      "type": "function"
    },
    {
      "inputs": [
        {
          "internalType": "uint256",
          "name": "tokenId",
          "type": "uint256"
        }
      ],
      "name": "getApproved",
      "outputs": [
        {
          "internalType": "address",
          "name": "",
          "type": "address"
        }
      ],
      "stateMutability": "view",
      "type": "function"
    },
    {
      "inputs": [
        {
          "internalType": "address",
          "name": "owner",
          "type": "address"
        },
        {
          "internalType": "address",
          "name": "operator",
          "type": "address"
        }
      ],
      "name": "isApprovedForAll",
      "outputs": [
        {
          "internalType": "bool",
          "name": "",
          "type": "bool"
        }
      ],
      "stateMutability": "view",
      "type": "function"
    },
    {
      "inputs": [],
      "name": "mint",
      "outputs": [],
      "stateMutability": "nonpayable",
      "type": "function"
    },
    {
      "inputs": [],
      "name": "name",
      "outputs": [
        {
          "internalType": "string",
          "name": "",
          "type": "string"
        }
      ],
      "stateMutability": "view",
      "type": "function"
    },
    {
      "inputs": [],
      "name": "nextTokenId",
      "outputs": [
        {
          "internalType": "uint256",
          "name": "",
          "type": "uint256"
        }
      ],
      "stateMutability": "view",
      "type": "function"
    },
    {
      "inputs": [
        {
          "internalType": "uint256",
          "name": "tokenId",
          "type": "uint256"
        }
      ],
      "name": "ownerOf",
      "outputs": [
        {
          "internalType": "address",
          "name": "",
          "type": "address"
        }
      ],
      "stateMutability": "view",
      "type": "function"
    },
    {
      "inputs": [
        {
          "internalType": "address",
          "name": "from",
          "type": "address"
        },
        {
          "internalType": "address",
          "name": "to",
          "type": "address"
        },
        {
          "internalType": "uint256",
          "name": "tokenId",
          "type": "uint256"
        }
      ],
      "name": "safeTransferFrom",
      "outputs": [],
      "stateMutability": "nonpayable",
      "type": "function"
    },
    {
      "inputs": [
        {
          "internalType": "address",
          "name": "from",
          "type": "address"
        },
        {
          "internalType": "address",
          "name": "to",
          "type": "address"
        },
        {
          "internalType": "uint256",
          "name": "tokenId",
          "type": "uint256"
        },
        {
          "internalType": "bytes",
          "name": "data",
          "type": "bytes"
        }
      ],
      "name": "safeTransferFrom",
      "outputs": [],
      "stateMutability": "nonpayable",
      "type": "function"
    },
    {
      "inputs": [
        {
          "internalType": "address",
          "name": "operator",
          "type": "address"
        },
        {
          "internalType": "bool",
          "name": "approved",
          "type": "bool"
        }
      ],
      "name": "setApprovalForAll",
      "outputs": [],
      "stateMutability": "nonpayable",
      "type": "function"
    },
    {
      "inputs": [
        {
          "internalType": "bytes4",
          "name": "interfaceId",
          "type": "bytes4"
        }
      ],
      "name": "supportsInterface",
      "outputs": [
        {
          "internalType": "bool",
          "name": "",
          "type": "bool"
        }
      ],
      "stateMutability": "view",
      "type": "function"
    },
    {
      "inputs": [],
      "name": "symbol",
      "outputs": [
        {
          "internalType": "string",
          "name": "",
          "type": "string"
        }
      ],
      "stateMutability": "view",
      "type": "function"
    },
    {
      "inputs": [
        {
          "internalType": "uint256",
          "name": "tokenId",
          "type": "uint256"
        }
      ],
      "name": "tokenURI",
      "outputs": [
        {
          "internalType": "string",
          "name": "",
          "type": "string"
        }
      ],
      "stateMutability": "view",
      "type": "function"
    },
    {
      "inputs": [
        {
          "internalType": "address",
          "name": "from",
          "type": "address"
        },
        {
          "internalType": "address",
          "name": "to",
          "type": "address"
        },
        {
          "internalType": "uint256",
          "name": "tokenId",
          "type": "uint256"
        }
      ],
      "name": "transferFrom",
      "outputs": [],
      "stateMutability": "nonpayable",
      "type": "function"
    }
  ],
  "bytecode": "0x60806040523480156200001157600080fd5b5060405180604001604052806005815260200164135e53919560da1b815250604051806040016040528060048152602001631353919560e21b81525081600090816200005e91906200011d565b5060016200006d82826200011d565b505050620001e9565b634e487b7160e01b600052604160045260246000fd5b600181811c90821680620000a157607f821691505b602082108103620000c257634e487b7160e01b600052602260045260246000fd5b50919050565b601f82111562000118576000816000526020600020601f850160051c81016020861015620000f35750805b601f850160051c820191505b818110156200011457828155600101620000ff565b5050505b505050565b81516001600160401b0381111562000139576200013962000076565b62000151816200014a84546200008c565b84620000c8565b602080601f831160018114620001895760008415620001705750858301515b600019600386901b1c1916600185901b17855562000114565b600085815260208120601f198616915b82811015620001ba5788860151825594840194600190910190840162000199565b5085821015620001d95787850151600019600388901b60f8161c191681555b5050505050600190811b01905550565b610ff480620001f96000396000f3fe608060405234801561001057600080fd5b50600436106100f55760003560e01c80636352211e11610097578063a22cb46511610066578063a22cb465146101ea578063b88d4fde146101fd578063c87b56dd14610210578063e985e9c51461022357600080fd5b80636352211e146101a557806370a08231146101b857806375794a3c146101d957806395d89b41146101e257600080fd5b8063095ea7b3116100d3578063095ea7b3146101625780631249c58b1461017757806323b872dd1461017f57806342842e0e1461019257600080fd5b806301ffc9a7146100fa57806306fdde0314610122578063081812fc14610137575b600080fd5b61010d610108366004610c3d565b610236565b60405190151581526020015b60405180910390f35b61012a610288565b6040516101199190610caa565b61014a610145366004610cbd565b61031a565b6040516001600160a01b039091168152602001610119565b610175610170366004610cf2565b610343565b005b610175610352565b61017561018d366004610d1c565b610375565b6101756101a0366004610d1c565b610405565b61014a6101b3366004610cbd565b610425565b6101cb6101c6366004610d58565b610430565b604051908152602001610119565b6101cb60065481565b61012a610478565b6101756101f8366004610d73565b610487565b61017561020b366004610dc5565b610492565b61012a61021e366004610cbd565b6104a9565b61010d610231366004610ea1565b61051e565b60006001600160e01b031982166380ac58cd60e01b148061026757506001600160e01b03198216635b5e139f60e01b145b8061028257506301ffc9a760e01b6001600160e01b03198316145b92915050565b60606000805461029790610ed4565b80601f01602080910402602001604051908101604052809291908181526020018280546102c390610ed4565b80156103105780601f106102e557610100808354040283529160200191610310565b820191906000526020600020905b8154815290600101906020018083116102f357829003601f168201915b5050505050905090565b60006103258261054c565b506000828152600460205260409020546001600160a01b0316610282565b61034e828233610585565b5050565b61035e33600654610592565b6006805490600061036e83610f0e565b9190505550565b6001600160a01b0382166103a457604051633250574960e11b8152600060048201526024015b60405180910390fd5b60006103b18383336105ac565b9050836001600160a01b0316816001600160a01b0316146103ff576040516364283d7b60e01b81526001600160a01b038086166004830152602482018490528216604482015260640161039b565b50505050565b61042083838360405180602001604052806000815250610492565b505050565b60006102828261054c565b60006001600160a01b03821661045c576040516322718ad960e21b81526000600482015260240161039b565b506001600160a01b031660009081526003602052604090205490565b60606001805461029790610ed4565b61034e3383836106a5565b61049d848484610375565b6103ff84848484610744565b60606104b48261054c565b5060006104cc60408051602081019091526000815290565b905060008151116104ec5760405180602001604052806000815250610517565b806104f68461086d565b604051602001610507929190610f35565b6040516020818303038152906040525b9392505050565b6001600160a01b03918216600090815260056020908152604080832093909416825291909152205460ff1690565b6000818152600260205260408120546001600160a01b03168061028257604051637e27328960e01b81526004810184905260240161039b565b6104208383836001610900565b61034e828260405180602001604052806000815250610a06565b6000828152600260205260408120546001600160a01b03908116908316156105d9576105d9818486610a1d565b6001600160a01b03811615610617576105f6600085600080610900565b6001600160a01b038116600090815260036020526040902080546000190190555b6001600160a01b03851615610646576001600160a01b0385166000908152600360205260409020805460010190555b60008481526002602052604080822080546001600160a01b0319166001600160a01b0389811691821790925591518793918516917fddf252ad1be2c89b69c2b068fc378daa952ba7f163c4a11628f55a4df523b3ef91a4949350505050565b6001600160a01b0382166106d757604051630b61174360e31b81526001600160a01b038316600482015260240161039b565b6001600160a01b03838116600081815260056020908152604080832094871680845294825291829020805460ff191686151590811790915591519182527f17307eab39ab6107e8899845ad3d59bd9653f200f220920489ca2b5937696c31910160405180910390a3505050565b6001600160a01b0383163b156103ff57604051630a85bd0160e11b81526001600160a01b0384169063150b7a0290610786903390889087908790600401610f64565b6020604051808303816000875af19250505080156107c1575060408051601f3d908101601f191682019092526107be91810190610fa1565b60015b61082a573d8080156107ef576040519150601f19603f3d011682016040523d82523d6000602084013e6107f4565b606091505b50805160000361082257604051633250574960e11b81526001600160a01b038516600482015260240161039b565b805181602001fd5b6001600160e01b03198116630a85bd0160e11b1461086657604051633250574960e11b81526001600160a01b038516600482015260240161039b565b5050505050565b6060600061087a83610a81565b600101905060008167ffffffffffffffff81111561089a5761089a610daf565b6040519080825280601f01601f1916602001820160405280156108c4576020820181803683370190505b5090508181016020015b600019016f181899199a1a9b1b9c1cb0b131b232b360811b600a86061a8153600a85049450846108ce57509392505050565b808061091457506001600160a01b03821615155b156109d65760006109248461054c565b90506001600160a01b038316158015906109505750826001600160a01b0316816001600160a01b031614155b80156109635750610961818461051e565b155b1561098c5760405163a9fbf51f60e01b81526001600160a01b038416600482015260240161039b565b81156109d45783856001600160a01b0316826001600160a01b03167f8c5be1e5ebec7d5bd14f71427d1e84f3dd0314c0f7b2291e5b200ac8c7c3b92560405160405180910390a45b505b5050600090815260046020526040902080546001600160a01b0319166001600160a01b0392909216919091179055565b610a108383610b59565b6104206000848484610744565b610a28838383610bbe565b610420576001600160a01b038316610a5657604051637e27328960e01b81526004810182905260240161039b565b60405163177e802f60e01b81526001600160a01b03831660048201526024810182905260440161039b565b60008072184f03e93ff9f4daa797ed6e38ed64bf6a1f0160401b8310610ac05772184f03e93ff9f4daa797ed6e38ed64bf6a1f0160401b830492506040015b6d04ee2d6d415b85acef81000000008310610aec576d04ee2d6d415b85acef8100000000830492506020015b662386f26fc100008310610b0a57662386f26fc10000830492506010015b6305f5e1008310610b22576305f5e100830492506008015b6127108310610b3657612710830492506004015b60648310610b48576064830492506002015b600a83106102825760010192915050565b6001600160a01b038216610b8357604051633250574960e11b81526000600482015260240161039b565b6000610b91838360006105ac565b90506001600160a01b03811615610420576040516339e3563760e11b81526000600482015260240161039b565b60006001600160a01b03831615801590610c1c5750826001600160a01b0316846001600160a01b03161480610bf85750610bf8848461051e565b80610c1c57506000828152600460205260409020546001600160a01b038481169116145b949350505050565b6001600160e01b031981168114610c3a57600080fd5b50565b600060208284031215610c4f57600080fd5b813561051781610c24565b60005b83811015610c75578181015183820152602001610c5d565b50506000910152565b60008151808452610c96816020860160208601610c5a565b601f01601f19169290920160200192915050565b6020815260006105176020830184610c7e565b600060208284031215610ccf57600080fd5b5035919050565b80356001600160a01b0381168114610ced57600080fd5b919050565b60008060408385031215610d0557600080fd5b610d0e83610cd6565b946020939093013593505050565b600080600060608486031215610d3157600080fd5b610d3a84610cd6565b9250610d4860208501610cd6565b9150604084013590509250925092565b600060208284031215610d6a57600080fd5b61051782610cd6565b60008060408385031215610d8657600080fd5b610d8f83610cd6565b915060208301358015158114610da457600080fd5b809150509250929050565b634e487b7160e01b600052604160045260246000fd5b60008060008060808587031215610ddb57600080fd5b610de485610cd6565b9350610df260208601610cd6565b925060408501359150606085013567ffffffffffffffff80821115610e1657600080fd5b818701915087601f830112610e2a57600080fd5b813581811115610e3c57610e3c610daf565b604051601f8201601f19908116603f01168101908382118183101715610e6457610e64610daf565b816040528281528a6020848701011115610e7d57600080fd5b82602086016020830137600060208483010152809550505050505092959194509250565b60008060408385031215610eb457600080fd5b610ebd83610cd6565b9150610ecb60208401610cd6565b90509250929050565b600181811c90821680610ee857607f821691505b602082108103610f0857634e487b7160e01b600052602260045260246000fd5b50919050565b600060018201610f2e57634e487b7160e01b600052601160045260246000fd5b5060010190565b60008351610f47818460208801610c5a565b835190830190610f5b818360208801610c5a565b01949350505050565b6001600160a01b0385811682528416602082015260408101839052608060608201819052600090610f9790830184610c7e565b9695505050505050565b600060208284031215610fb357600080fd5b815161051781610c2456fea26469706673582212201cdd4d0e36870c372cebff989803e79bd9a43673f59159b58643eb42e0f7652c64736f6c63430008180033",
  "linkReferences": {},
  "deployedLinkReferences": {}
}