{
  "_format": "hh-sol-artifact-1",
  "contractName": "Withdraw",
  "sourceName": "contracts/Withdraw.sol",
  "abi": [
    {
      "inputs": [
        {
          "internalType": "address",
          "name": "router",
          "type": "address"
        },
        {
          "internalType": "contract IHasher",
          "name": "hasher",
          "type": "address"
        },
        {
          "internalType": "uint32",
          "name": "merkleTreeHeight",
          "type": "uint32"
        }
      ],
      "stateMutability": "nonpayable",
      "type": "constructor"
    },
    {
      "inputs": [
        {
          "internalType": "address",
          "name": "router",
          "type": "address"
        }
      ],
      "name": "InvalidRouter",
      "type": "error"
    },
    {
      "anonymous": false,
      "inputs": [
        {
          "indexed": true,
          "internalType": "bytes32",
          "name": "commitment",
          "type": "bytes32"
        },
        {
          "indexed": true,
          "internalType": "uint256",
          "name": "leafIndex",
          "type": "uint256"
        }
      ],
      "name": "Deposit",
      "type": "event"
    },
    {
      "anonymous": false,
      "inputs": [
        {
          "indexed": true,
          "internalType": "bytes32",
          "name": "messageId",
          "type": "bytes32"
        },
        {
          "indexed": true,
          "internalType": "uint64",
          "name": "sourceChainSelector",
          "type": "uint64"
        },
        {
          "indexed": false,
          "internalType": "address",
          "name": "sender",
          "type": "address"
        },
        {
          "indexed": false,
          "internalType": "bytes32",
          "name": "text",
          "type": "bytes32"
        }
      ],
      "name": "MessageReceived",
      "type": "event"
    },
    {
      "inputs": [],
      "name": "FIELD_SIZE",
      "outputs": [
        {
          "internalType": "uint256",
          "name": "",
          "type": "uint256"
        }
      ],
      "stateMutability": "view",
      "type": "function"
    },
    {
      "inputs": [],
      "name": "ROOT_HISTORY_SIZE",
      "outputs": [
        {
          "internalType": "uint32",
          "name": "",
          "type": "uint32"
        }
      ],
      "stateMutability": "view",
      "type": "function"
    },
    {
      "inputs": [],
      "name": "ZERO_VALUE",
      "outputs": [
        {
          "internalType": "uint256",
          "name": "",
          "type": "uint256"
        }
      ],
      "stateMutability": "view",
      "type": "function"
    },
    {
      "inputs": [
        {
          "components": [
            {
              "internalType": "bytes32",
              "name": "messageId",
              "type": "bytes32"
            },
            {
              "internalType": "uint64",
              "name": "sourceChainSelector",
              "type": "uint64"
            },
            {
              "internalType": "bytes",
              "name": "sender",
              "type": "bytes"
            },
            {
              "internalType": "bytes",
              "name": "data",
              "type": "bytes"
            },
            {
              "components": [
                {
                  "internalType": "address",
                  "name": "token",
                  "type": "address"
                },
                {
                  "internalType": "uint256",
                  "name": "amount",
                  "type": "uint256"
                }
              ],
              "internalType": "struct Client.EVMTokenAmount[]",
              "name": "destTokenAmounts",
              "type": "tuple[]"
            }
          ],
          "internalType": "struct Client.Any2EVMMessage",
          "name": "message",
          "type": "tuple"
        }
      ],
      "name": "ccipReceive",
      "outputs": [],
      "stateMutability": "nonpayable",
      "type": "function"
    },
    {
      "inputs": [],
      "name": "currentRootIndex",
      "outputs": [
        {
          "internalType": "uint32",
          "name": "",
          "type": "uint32"
        }
      ],
      "stateMutability": "view",
      "type": "function"
    },
    {
      "inputs": [
        {
          "internalType": "uint256",
          "name": "",
          "type": "uint256"
        }
      ],
      "name": "filledSubtrees",
      "outputs": [
        {
          "internalType": "bytes32",
          "name": "",
          "type": "bytes32"
        }
      ],
      "stateMutability": "view",
      "type": "function"
    },
    {
      "inputs": [],
      "name": "getLastReceivedMessageDetails",
      "outputs": [
        {
          "internalType": "bytes32",
          "name": "messageId",
          "type": "bytes32"
        },
        {
          "internalType": "bytes32",
          "name": "text",
          "type": "bytes32"
        }
      ],
      "stateMutability": "view",
      "type": "function"
    },
    {
      "inputs": [],
      "name": "getLastRoot",
      "outputs": [
        {
          "internalType": "bytes32",
          "name": "",
          "type": "bytes32"
        }
      ],
      "stateMutability": "view",
      "type": "function"
    },
    {
      "inputs": [],
      "name": "getRouter",
      "outputs": [
        {
          "internalType": "address",
          "name": "",
          "type": "address"
        }
      ],
      "stateMutability": "view",
      "type": "function"
    },
    {
      "inputs": [
        {
          "internalType": "contract IHasher",
          "name": "_hasher",
          "type": "address"
        },
        {
          "internalType": "bytes32",
          "name": "_left",
          "type": "bytes32"
        },
        {
          "internalType": "bytes32",
          "name": "_right",
          "type": "bytes32"
        }
      ],
      "name": "hashLeftRight",
      "outputs": [
        {
          "internalType": "bytes32",
          "name": "",
          "type": "bytes32"
        }
      ],
      "stateMutability": "pure",
      "type": "function"
    },
    {
      "inputs": [],
      "name": "hasher",
      "outputs": [
        {
          "internalType": "contract IHasher",
          "name": "",
          "type": "address"
        }
      ],
      "stateMutability": "view",
      "type": "function"
    },
    {
      "inputs": [
        {
          "internalType": "bytes32",
          "name": "_root",
          "type": "bytes32"
        }
      ],
      "name": "isKnownRoot",
      "outputs": [
        {
          "internalType": "bool",
          "name": "",
          "type": "bool"
        }
      ],
      "stateMutability": "view",
      "type": "function"
    },
    {
      "inputs": [],
      "name": "levels",
      "outputs": [
        {
          "internalType": "uint32",
          "name": "",
          "type": "uint32"
        }
      ],
      "stateMutability": "view",
      "type": "function"
    },
    {
      "inputs": [],
      "name": "nextIndex",
      "outputs": [
        {
          "internalType": "uint32",
          "name": "",
          "type": "uint32"
        }
      ],
      "stateMutability": "view",
      "type": "function"
    },
    {
      "inputs": [
        {
          "internalType": "uint256",
          "name": "",
          "type": "uint256"
        }
      ],
      "name": "roots",
      "outputs": [
        {
          "internalType": "bytes32",
          "name": "",
          "type": "bytes32"
        }
      ],
      "stateMutability": "view",
      "type": "function"
    },
    {
      "inputs": [
        {
          "internalType": "bytes4",
          "name": "interfaceId",
          "type": "bytes4"
        }
      ],
      "name": "supportsInterface",
      "outputs": [
        {
          "internalType": "bool",
          "name": "",
          "type": "bool"
        }
      ],
      "stateMutability": "view",
      "type": "function"
    },
    {
      "inputs": [
        {
          "internalType": "uint256",
          "name": "",
          "type": "uint256"
        },
        {
          "internalType": "uint256",
          "name": "",
          "type": "uint256"
        }
      ],
      "name": "tree",
      "outputs": [
        {
          "internalType": "bytes32",
          "name": "",
          "type": "bytes32"
        }
      ],
      "stateMutability": "view",
      "type": "function"
    },
    {
      "inputs": [
        {
          "internalType": "uint256",
          "name": "index",
          "type": "uint256"
        }
      ],
      "name": "zeros",
      "outputs": [
        {
          "internalType": "bytes32",
          "name": "",
          "type": "bytes32"
        }
      ],
      "stateMutability": "pure",
      "type": "function"
    }
  ],
  "bytecode": "0x60c0604052600380546001600160401b03191690553480156200002157600080fd5b506040516200132e3803806200132e8339810160408190526200004491620002e5565b8082846001600160a01b03811662000077576040516335fdcccd60e21b8152600060048201526024015b60405180910390fd5b6001600160a01b031660805263ffffffff8216620000e45760405162461bcd60e51b815260206004820152602360248201527f5f6c6576656c732073686f756c642062652067726561746572207468616e207a60448201526265726f60e81b60648201526084016200006e565b60208263ffffffff16106200013c5760405162461bcd60e51b815260206004820152601e60248201527f5f6c6576656c732073686f756c64206265206c657373207468616e203332000060448201526064016200006e565b6000805463ffffffff191663ffffffff84161781556001600160a01b03821660a0525b8263ffffffff168163ffffffff161015620001a8576200018563ffffffff8216620001f1565b63ffffffff8216600090815260016020819052604090912091909155016200015f565b50620001ba63ffffffff8316620001f1565b6000805260026020527fac33ff75c19e70fe83507db0d683fd3465c996598dc972688b7ace676c89077b5550620003419350505050565b6000816000036200022357507f2a09a9fd93c590c26b91effbb2499f07e8f7aa12e2b4940a3aed2411cb65e11c919050565b816001036200025357507f17192e62a157556849d93b3c6be1e2bd1f3f1660d10dd9b1ffc429aa9021252c919050565b816002036200028357507f04d5abb4c7f77e3b5d8bc7a049d5ba6e79f29c5c5a9edf0a58726e653e8bc0c7919050565b60405162461bcd60e51b815260206004820152601560248201527f57726f6e6744656661756c745a65726f496e646578000000000000000000000060448201526064016200006e565b6001600160a01b0381168114620002e257600080fd5b50565b600080600060608486031215620002fb57600080fd5b83516200030881620002cc565b60208501519093506200031b81620002cc565b604085015190925063ffffffff811681146200033657600080fd5b809150509250925092565b60805160a051610fb962000375600039600081816102cd01526108cb01526000818161023001526103e70152610fb96000f3fe608060405234801561001057600080fd5b50600436106101165760003560e01c8063b0f479a1116100a2578063e829558811610071578063e8295588146102ad578063ec732959146102c0578063ed33639f146102c8578063f178e47c146102ef578063fc7e9c6f1461030f57600080fd5b8063b0f479a11461022e578063ba70f75714610268578063c2b40ae414610285578063cd87a3b4146102a557600080fd5b80636d9833e3116100e95780636d9833e3146101b857806378c2d335146101cb57806385572ffb146101f65780638ea3099e1461020b57806390eeb02b1461021e57600080fd5b806301ffc9a71461011b578063263596a514610143578063414a37ba1461015e5780634ecf518b14610193575b600080fd5b61012e6101293660046109cd565b610327565b60405190151581526020015b60405180910390f35b6005546006546040805192835260208301919091520161013a565b6101857f30644e72e131a029b85045b68181585d2833e84879b9709143e1f593f000000181565b60405190815260200161013a565b6000546101a39063ffffffff1681565b60405163ffffffff909116815260200161013a565b61012e6101c63660046109fe565b61035e565b6101856101d9366004610a17565b600460209081526000928352604080842090915290825290205481565b610209610204366004610a39565b6103dc565b005b610185610219366004610a89565b610440565b6003546101a39063ffffffff1681565b7f00000000000000000000000000000000000000000000000000000000000000005b6040516001600160a01b03909116815260200161013a565b60035463ffffffff16600090815260026020526040902054610185565b6101856102933660046109fe565b60026020526000908152604090205481565b6101a3601e81565b6101856102bb3660046109fe565b6105b6565b610185600081565b6102507f000000000000000000000000000000000000000000000000000000000000000081565b6101856102fd3660046109fe565b60016020526000908152604090205481565b6003546101a390640100000000900463ffffffff1681565b60006001600160e01b031982166385572ffb60e01b148061035857506001600160e01b031982166301ffc9a760e01b145b92915050565b600081810361036f57506000919050565b60035463ffffffff16805b63ffffffff811660009081526002602052604090205484036103a0575060019392505050565b8063ffffffff166000036103b25750601e5b806103bc81610ad4565b9150508163ffffffff168163ffffffff160361037a575060009392505050565b336001600160a01b037f0000000000000000000000000000000000000000000000000000000000000000161461042c576040516335fdcccd60e21b81523360048201526024015b60405180910390fd5b61043d61043882610cc1565b610685565b50565b60007f30644e72e131a029b85045b68181585d2833e84879b9709143e1f593f000000183106104b15760405162461bcd60e51b815260206004820181905260248201527f5f6c6566742073686f756c6420626520696e7369646520746865206669656c646044820152606401610423565b7f30644e72e131a029b85045b68181585d2833e84879b9709143e1f593f0000001821061052a5760405162461bcd60e51b815260206004820152602160248201527f5f72696768742073686f756c6420626520696e7369646520746865206669656c6044820152601960fa1b6064820152608401610423565b6040805180820182528481526020810184905290516314d2f97b60e11b8152839185916001600160a01b038816916329a5f2f69161056b9190600401610d6e565b602060405180830381865afa158015610588573d6000803e3d6000fd5b505050506040513d601f19601f820116820180604052508101906105ac9190610d9f565b9695505050505050565b6000816000036105e757507f2a09a9fd93c590c26b91effbb2499f07e8f7aa12e2b4940a3aed2411cb65e11c919050565b8160010361061657507f17192e62a157556849d93b3c6be1e2bd1f3f1660d10dd9b1ffc429aa9021252c919050565b8160020361064557507f04d5abb4c7f77e3b5d8bc7a049d5ba6e79f29c5c5a9edf0a58726e653e8bc0c7919050565b60405162461bcd60e51b81526020600482015260156024820152740aee4dedcce88caccc2ead8e8b4cae4de92dcc8caf605b1b6044820152606401610423565b8051600555606081015180516106a391602091810182019101610d9f565b60068190556000906106b490610776565b63ffffffff169050816020015167ffffffffffffffff1682600001517f013e49a3a0c8561b10702723887ef18bff1d8d8b0cd5e81973a883cf81ec1f3184604001518060200190518101906107099190610db8565b85606001518060200190518101906107219190610d9f565b604080516001600160a01b03909316835260208301919091520160405180910390a36006546040518291907f98e783c3864bbf744a057ef605a2a61701c3b62b5ed68b3745b99094497daf1f90600090a35050565b60035460008054909163ffffffff64010000000090910481169161079c91166002610ee6565b63ffffffff168163ffffffff160361080f5760405162461bcd60e51b815260206004820152603060248201527f4d65726b6c6520747265652069732066756c6c2e204e6f206d6f7265206c656160448201526f1d995cc818d85b88189948185919195960821b6064820152608401610423565b63ffffffff811660009081527f17ef568e3e12ab5b9c7254a8d58478811de00f9e6eb34345acd53bf8fd09d3ec602052604081208490558190849080805b60005463ffffffff908116908216101561093f5761086c600286610f19565b63ffffffff166000036108aa5783925061088b8163ffffffff166105b6565b63ffffffff8216600090815260016020526040902085905591506108c6565b63ffffffff811660009081526001602052604090205492508391505b6108f17f00000000000000000000000000000000000000000000000000000000000000008484610440565b93506108fe600286610f3c565b94508360046000610910846001610f5f565b63ffffffff908116825260208083019390935260409182016000908120918a168152925290205560010161084d565b50600354600090601e9061095a9063ffffffff166001610f5f565b6109649190610f19565b6003805463ffffffff191663ffffffff83169081179091556000908152600260205260409020859055905061099a866001610f5f565b6003805463ffffffff929092166401000000000267ffffffff000000001990921691909117905550939695505050505050565b6000602082840312156109df57600080fd5b81356001600160e01b0319811681146109f757600080fd5b9392505050565b600060208284031215610a1057600080fd5b5035919050565b60008060408385031215610a2a57600080fd5b50508035926020909101359150565b600060208284031215610a4b57600080fd5b813567ffffffffffffffff811115610a6257600080fd5b820160a081850312156109f757600080fd5b6001600160a01b038116811461043d57600080fd5b600080600060608486031215610a9e57600080fd5b8335610aa981610a74565b95602085013595506040909401359392505050565b634e487b7160e01b600052601160045260246000fd5b600063ffffffff821680610aea57610aea610abe565b6000190192915050565b634e487b7160e01b600052604160045260246000fd5b6040805190810167ffffffffffffffff81118282101715610b2d57610b2d610af4565b60405290565b60405160a0810167ffffffffffffffff81118282101715610b2d57610b2d610af4565b604051601f8201601f1916810167ffffffffffffffff81118282101715610b7f57610b7f610af4565b604052919050565b803567ffffffffffffffff81168114610b9f57600080fd5b919050565b600082601f830112610bb557600080fd5b813567ffffffffffffffff811115610bcf57610bcf610af4565b610be2601f8201601f1916602001610b56565b818152846020838601011115610bf757600080fd5b816020850160208301376000918101602001919091529392505050565b600082601f830112610c2557600080fd5b8135602067ffffffffffffffff821115610c4157610c41610af4565b610c4f818360051b01610b56565b82815260069290921b84018101918181019086841115610c6e57600080fd5b8286015b84811015610cb65760408189031215610c8b5760008081fd5b610c93610b0a565b8135610c9e81610a74565b81528185013585820152835291830191604001610c72565b509695505050505050565b600060a08236031215610cd357600080fd5b610cdb610b33565b82358152610ceb60208401610b87565b6020820152604083013567ffffffffffffffff80821115610d0b57600080fd5b610d1736838701610ba4565b60408401526060850135915080821115610d3057600080fd5b610d3c36838701610ba4565b60608401526080850135915080821115610d5557600080fd5b50610d6236828601610c14565b60808301525092915050565b60408101818360005b6002811015610d96578151835260209283019290910190600101610d77565b50505092915050565b600060208284031215610db157600080fd5b5051919050565b600060208284031215610dca57600080fd5b81516109f781610a74565b600181815b80851115610e12578163ffffffff04821115610df857610df8610abe565b80851615610e0557918102915b93841c9390800290610dda565b509250929050565b600082610e2957506001610358565b81610e3657506000610358565b8160018114610e4c5760028114610e5657610e87565b6001915050610358565b60ff841115610e6757610e67610abe565b6001841b915063ffffffff821115610e8157610e81610abe565b50610358565b5060208310610133831016604e8410600b8410161715610ebe575081810a63ffffffff811115610eb957610eb9610abe565b610358565b610ec88383610dd5565b8063ffffffff04821115610ede57610ede610abe565b029392505050565b600063ffffffff610efb818516828516610e1a565b949350505050565b634e487b7160e01b600052601260045260246000fd5b600063ffffffff80841680610f3057610f30610f03565b92169190910692915050565b600063ffffffff80841680610f5357610f53610f03565b92169190910492915050565b63ffffffff818116838216019080821115610f7c57610f7c610abe565b509291505056fea26469706673582212202f9cf0e51628ed7c2888cd5b27606bcd02cfb438d12cdc925a97e40266ae3b1664736f6c63430008180033",
  "linkReferences": {},
  "deployedLinkReferences": {}
}